{
  "_format": "hh-sol-artifact-1",
  "contractName": "MyEpicGame",
  "sourceName": "contracts/MyEpicGame.sol",
  "abi": [
    {
      "inputs": [
        {
          "internalType": "string[]",
          "name": "characterNames",
          "type": "string[]"
        },
        {
          "internalType": "string[]",
          "name": "characterImageURIs",
          "type": "string[]"
        },
        {
          "internalType": "uint256[]",
          "name": "characterHp",
          "type": "uint256[]"
        },
        {
          "internalType": "uint256[]",
          "name": "characterEnergy",
          "type": "uint256[]"
        },
        {
          "internalType": "uint256[]",
          "name": "characterAttackDamage",
          "type": "uint256[]"
        },
        {
          "internalType": "uint256[]",
          "name": "characterHpHealingFactor",
          "type": "uint256[]"
        },
        {
          "internalType": "string",
          "name": "bossName",
          "type": "string"
        },
        {
          "internalType": "string",
          "name": "bossImageURI",
          "type": "string"
        },
        {
          "internalType": "uint256",
          "name": "bossHp",
          "type": "uint256"
        },
        {
          "internalType": "uint256",
          "name": "bossEnergy",
          "type": "uint256"
        },
        {
          "internalType": "uint256",
          "name": "bossAttackDamage",
          "type": "uint256"
        }
      ],
      "stateMutability": "nonpayable",
      "type": "constructor"
    },
    {
      "anonymous": false,
      "inputs": [
        {
          "indexed": true,
          "internalType": "address",
          "name": "owner",
          "type": "address"
        },
        {
          "indexed": true,
          "internalType": "address",
          "name": "approved",
          "type": "address"
        },
        {
          "indexed": true,
          "internalType": "uint256",
          "name": "tokenId",
          "type": "uint256"
        }
      ],
      "name": "Approval",
      "type": "event"
    },
    {
      "anonymous": false,
      "inputs": [
        {
          "indexed": true,
          "internalType": "address",
          "name": "owner",
          "type": "address"
        },
        {
          "indexed": true,
          "internalType": "address",
          "name": "operator",
          "type": "address"
        },
        {
          "indexed": false,
          "internalType": "bool",
          "name": "approved",
          "type": "bool"
        }
      ],
      "name": "ApprovalForAll",
      "type": "event"
    },
    {
      "anonymous": false,
      "inputs": [
        {
          "indexed": false,
          "internalType": "address",
          "name": "sender",
          "type": "address"
        },
        {
          "indexed": false,
          "internalType": "uint256",
          "name": "newBossHp",
          "type": "uint256"
        },
        {
          "indexed": false,
          "internalType": "uint256",
          "name": "newPlayerHp",
          "type": "uint256"
        }
      ],
      "name": "AttackComplete",
      "type": "event"
    },
    {
      "anonymous": false,
      "inputs": [
        {
          "indexed": false,
          "internalType": "address",
          "name": "sender",
          "type": "address"
        },
        {
          "indexed": false,
          "internalType": "uint256",
          "name": "tokenId",
          "type": "uint256"
        },
        {
          "indexed": false,
          "internalType": "uint256",
          "name": "characterIndex",
          "type": "uint256"
        }
      ],
      "name": "CharacterNFTMinted",
      "type": "event"
    },
    {
      "anonymous": false,
      "inputs": [],
      "name": "CriticalHit",
      "type": "event"
    },
    {
      "anonymous": false,
      "inputs": [
        {
          "indexed": true,
          "internalType": "address",
          "name": "from",
          "type": "address"
        },
        {
          "indexed": true,
          "internalType": "address",
          "name": "to",
          "type": "address"
        },
        {
          "indexed": true,
          "internalType": "uint256",
          "name": "tokenId",
          "type": "uint256"
        }
      ],
      "name": "Transfer",
      "type": "event"
    },
    {
      "inputs": [
        {
          "internalType": "address",
          "name": "to",
          "type": "address"
        },
        {
          "internalType": "uint256",
          "name": "tokenId",
          "type": "uint256"
        }
      ],
      "name": "approve",
      "outputs": [],
      "stateMutability": "nonpayable",
      "type": "function"
    },
    {
      "inputs": [],
      "name": "attackBoss",
      "outputs": [],
      "stateMutability": "nonpayable",
      "type": "function"
    },
    {
      "inputs": [
        {
          "internalType": "address",
          "name": "owner",
          "type": "address"
        }
      ],
      "name": "balanceOf",
      "outputs": [
        {
          "internalType": "uint256",
          "name": "",
          "type": "uint256"
        }
      ],
      "stateMutability": "view",
      "type": "function"
    },
    {
      "inputs": [],
      "name": "bigBoss",
      "outputs": [
        {
          "internalType": "string",
          "name": "name",
          "type": "string"
        },
        {
          "internalType": "string",
          "name": "imageURI",
          "type": "string"
        },
        {
          "internalType": "uint256",
          "name": "hp",
          "type": "uint256"
        },
        {
          "internalType": "uint256",
          "name": "maxHp",
          "type": "uint256"
        },
        {
          "internalType": "uint256",
          "name": "energy",
          "type": "uint256"
        },
        {
          "internalType": "uint256",
          "name": "maxEnergy",
          "type": "uint256"
        },
        {
          "internalType": "uint256",
          "name": "attackDamage",
          "type": "uint256"
        }
      ],
      "stateMutability": "view",
      "type": "function"
    },
    {
      "inputs": [],
      "name": "checkIfUserHasNFT",
      "outputs": [
        {
          "components": [
            {
              "internalType": "uint256",
              "name": "characterIndex",
              "type": "uint256"
            },
            {
              "internalType": "string",
              "name": "name",
              "type": "string"
            },
            {
              "internalType": "string",
              "name": "imageURI",
              "type": "string"
            },
            {
              "internalType": "uint256",
              "name": "hp",
              "type": "uint256"
            },
            {
              "internalType": "uint256",
              "name": "maxHp",
              "type": "uint256"
            },
            {
              "internalType": "uint256",
              "name": "energy",
              "type": "uint256"
            },
            {
              "internalType": "uint256",
              "name": "maxEnergy",
              "type": "uint256"
            },
            {
              "internalType": "uint256",
              "name": "attackDamage",
              "type": "uint256"
            },
            {
              "internalType": "uint256",
              "name": "hpHealingFactor",
              "type": "uint256"
            }
          ],
          "internalType": "struct MyEpicGame.CharacterAttributes",
          "name": "",
          "type": "tuple"
        }
      ],
      "stateMutability": "view",
      "type": "function"
    },
    {
      "inputs": [],
      "name": "getAllDefaultCharacters",
      "outputs": [
        {
          "components": [
            {
              "internalType": "uint256",
              "name": "characterIndex",
              "type": "uint256"
            },
            {
              "internalType": "string",
              "name": "name",
              "type": "string"
            },
            {
              "internalType": "string",
              "name": "imageURI",
              "type": "string"
            },
            {
              "internalType": "uint256",
              "name": "hp",
              "type": "uint256"
            },
            {
              "internalType": "uint256",
              "name": "maxHp",
              "type": "uint256"
            },
            {
              "internalType": "uint256",
              "name": "energy",
              "type": "uint256"
            },
            {
              "internalType": "uint256",
              "name": "maxEnergy",
              "type": "uint256"
            },
            {
              "internalType": "uint256",
              "name": "attackDamage",
              "type": "uint256"
            },
            {
              "internalType": "uint256",
              "name": "hpHealingFactor",
              "type": "uint256"
            }
          ],
          "internalType": "struct MyEpicGame.CharacterAttributes[]",
          "name": "",
          "type": "tuple[]"
        }
      ],
      "stateMutability": "view",
      "type": "function"
    },
    {
      "inputs": [],
      "name": "getAllPlayers",
      "outputs": [
        {
          "internalType": "address[]",
          "name": "",
          "type": "address[]"
        }
      ],
      "stateMutability": "view",
      "type": "function"
    },
    {
      "inputs": [
        {
          "internalType": "uint256",
          "name": "tokenId",
          "type": "uint256"
        }
      ],
      "name": "getApproved",
      "outputs": [
        {
          "internalType": "address",
          "name": "",
          "type": "address"
        }
      ],
      "stateMutability": "view",
      "type": "function"
    },
    {
      "inputs": [],
      "name": "getBigBoss",
      "outputs": [
        {
          "components": [
            {
              "internalType": "string",
              "name": "name",
              "type": "string"
            },
            {
              "internalType": "string",
              "name": "imageURI",
              "type": "string"
            },
            {
              "internalType": "uint256",
              "name": "hp",
              "type": "uint256"
            },
            {
              "internalType": "uint256",
              "name": "maxHp",
              "type": "uint256"
            },
            {
              "internalType": "uint256",
              "name": "energy",
              "type": "uint256"
            },
            {
              "internalType": "uint256",
              "name": "maxEnergy",
              "type": "uint256"
            },
            {
              "internalType": "uint256",
              "name": "attackDamage",
              "type": "uint256"
            }
          ],
          "internalType": "struct MyEpicGame.BigBoss",
          "name": "",
          "type": "tuple"
        }
      ],
      "stateMutability": "view",
      "type": "function"
    },
    {
      "inputs": [
        {
          "internalType": "address",
          "name": "owner",
          "type": "address"
        },
        {
          "internalType": "address",
          "name": "operator",
          "type": "address"
        }
      ],
      "name": "isApprovedForAll",
      "outputs": [
        {
          "internalType": "bool",
          "name": "",
          "type": "bool"
        }
      ],
      "stateMutability": "view",
      "type": "function"
    },
    {
      "inputs": [
        {
          "internalType": "uint256",
          "name": "_characterIndex",
          "type": "uint256"
        }
      ],
      "name": "mintCharacterNFT",
      "outputs": [],
      "stateMutability": "nonpayable",
      "type": "function"
    },
    {
      "inputs": [],
      "name": "name",
      "outputs": [
        {
          "internalType": "string",
          "name": "",
          "type": "string"
        }
      ],
      "stateMutability": "view",
      "type": "function"
    },
    {
      "inputs": [
        {
          "internalType": "uint256",
          "name": "",
          "type": "uint256"
        }
      ],
      "name": "nftHolderAttributes",
      "outputs": [
        {
          "internalType": "uint256",
          "name": "characterIndex",
          "type": "uint256"
        },
        {
          "internalType": "string",
          "name": "name",
          "type": "string"
        },
        {
          "internalType": "string",
          "name": "imageURI",
          "type": "string"
        },
        {
          "internalType": "uint256",
          "name": "hp",
          "type": "uint256"
        },
        {
          "internalType": "uint256",
          "name": "maxHp",
          "type": "uint256"
        },
        {
          "internalType": "uint256",
          "name": "energy",
          "type": "uint256"
        },
        {
          "internalType": "uint256",
          "name": "maxEnergy",
          "type": "uint256"
        },
        {
          "internalType": "uint256",
          "name": "attackDamage",
          "type": "uint256"
        },
        {
          "internalType": "uint256",
          "name": "hpHealingFactor",
          "type": "uint256"
        }
      ],
      "stateMutability": "view",
      "type": "function"
    },
    {
      "inputs": [
        {
          "internalType": "address",
          "name": "",
          "type": "address"
        }
      ],
      "name": "nftHolders",
      "outputs": [
        {
          "internalType": "uint256",
          "name": "",
          "type": "uint256"
        }
      ],
      "stateMutability": "view",
      "type": "function"
    },
    {
      "inputs": [
        {
          "internalType": "uint256",
          "name": "tokenId",
          "type": "uint256"
        }
      ],
      "name": "ownerOf",
      "outputs": [
        {
          "internalType": "address",
          "name": "",
          "type": "address"
        }
      ],
      "stateMutability": "view",
      "type": "function"
    },
    {
      "inputs": [
        {
          "internalType": "address",
          "name": "from",
          "type": "address"
        },
        {
          "internalType": "address",
          "name": "to",
          "type": "address"
        },
        {
          "internalType": "uint256",
          "name": "tokenId",
          "type": "uint256"
        }
      ],
      "name": "safeTransferFrom",
      "outputs": [],
      "stateMutability": "nonpayable",
      "type": "function"
    },
    {
      "inputs": [
        {
          "internalType": "address",
          "name": "from",
          "type": "address"
        },
        {
          "internalType": "address",
          "name": "to",
          "type": "address"
        },
        {
          "internalType": "uint256",
          "name": "tokenId",
          "type": "uint256"
        },
        {
          "internalType": "bytes",
          "name": "_data",
          "type": "bytes"
        }
      ],
      "name": "safeTransferFrom",
      "outputs": [],
      "stateMutability": "nonpayable",
      "type": "function"
    },
    {
      "inputs": [
        {
          "internalType": "address",
          "name": "operator",
          "type": "address"
        },
        {
          "internalType": "bool",
          "name": "approved",
          "type": "bool"
        }
      ],
      "name": "setApprovalForAll",
      "outputs": [],
      "stateMutability": "nonpayable",
      "type": "function"
    },
    {
      "inputs": [
        {
          "internalType": "bytes4",
          "name": "interfaceId",
          "type": "bytes4"
        }
      ],
      "name": "supportsInterface",
      "outputs": [
        {
          "internalType": "bool",
          "name": "",
          "type": "bool"
        }
      ],
      "stateMutability": "view",
      "type": "function"
    },
    {
      "inputs": [],
      "name": "symbol",
      "outputs": [
        {
          "internalType": "string",
          "name": "",
          "type": "string"
        }
      ],
      "stateMutability": "view",
      "type": "function"
    },
    {
      "inputs": [
        {
          "internalType": "uint256",
          "name": "_tokenId",
          "type": "uint256"
        }
      ],
      "name": "tokenURI",
      "outputs": [
        {
          "internalType": "string",
          "name": "",
          "type": "string"
        }
      ],
      "stateMutability": "view",
      "type": "function"
    },
    {
      "inputs": [
        {
          "internalType": "address",
          "name": "from",
          "type": "address"
        },
        {
          "internalType": "address",
          "name": "to",
          "type": "address"
        },
        {
          "internalType": "uint256",
          "name": "tokenId",
          "type": "uint256"
        }
      ],
      "name": "transferFrom",
      "outputs": [],
      "stateMutability": "nonpayable",
      "type": "function"
    }
  ],
  "bytecode": "0x60806040523480156200001157600080fd5b506040516200606938038062006069833981810160405281019062000037919062000b3d565b6040518060400160405280600881526020017f57617272696f72730000000000000000000000000000000000000000000000008152506040518060400160405280600481526020017f4865726f000000000000000000000000000000000000000000000000000000008152508160009080519060200190620000bb929190620008d0565b508060019080519060200190620000d4929190620008d0565b50505060644442620000e7919062000eed565b620000f3919062000ff6565b600e8190555060005b8b518110156200066857600f6040518061012001604052808381526020018e848151811062000154577f4e487b7100000000000000000000000000000000000000000000000000000000600052603260045260246000fd5b602002602001015181526020018d84815181106200019b577f4e487b7100000000000000000000000000000000000000000000000000000000600052603260045260246000fd5b602002602001015181526020018c8481518110620001e2577f4e487b7100000000000000000000000000000000000000000000000000000000600052603260045260246000fd5b602002602001015181526020018c848151811062000229577f4e487b7100000000000000000000000000000000000000000000000000000000600052603260045260246000fd5b602002602001015181526020018b848151811062000270577f4e487b7100000000000000000000000000000000000000000000000000000000600052603260045260246000fd5b602002602001015181526020018b8481518110620002b7577f4e487b7100000000000000000000000000000000000000000000000000000000600052603260045260246000fd5b602002602001015181526020018a8481518110620002fe577f4e487b7100000000000000000000000000000000000000000000000000000000600052603260045260246000fd5b6020026020010151815260200189848151811062000345577f4e487b7100000000000000000000000000000000000000000000000000000000600052603260045260246000fd5b60200260200101518152509080600181540180825580915050600190039060005260206000209060090201600090919091909150600082015181600001556020820151816001019080519060200190620003a1929190620008d0565b506040820151816002019080519060200190620003c0929190620008d0565b50606082015181600301556080820151816004015560a0820151816005015560c0820151816006015560e08201518160070155610100820151816008015550506000600f82815481106200043d577f4e487b7100000000000000000000000000000000000000000000000000000000600052603260045260246000fd5b90600052602060002090600902016040518061012001604052908160008201548152602001600182018054620004739062000f8a565b80601f0160208091040260200160405190810160405280929190818152602001828054620004a19062000f8a565b8015620004f25780601f10620004c657610100808354040283529160200191620004f2565b820191906000526020600020905b815481529060010190602001808311620004d457829003601f168201915b505050505081526020016002820180546200050d9062000f8a565b80601f01602080910402602001604051908101604052809291908181526020018280546200053b9062000f8a565b80156200058c5780601f1062000560576101008083540402835291602001916200058c565b820191906000526020600020905b8154815290600101906020018083116200056e57829003601f168201915b50505050508152602001600382015481526020016004820154815260200160058201548152602001600682015481526020016007820154815260200160088201548152505090506200061160405180606001604052806025815260200162006011602591398260200151836060015184604001516200073960201b62001f0a1760201c565b6200065060405180606001604052806033815260200162006036603391398260a001518360e00151846101000151620007e560201b62001fac1760201c565b5060018162000660919062000eed565b9050620000fc565b506040518060e001604052808681526020018581526020018481526020018481526020018381526020018381526020018281525060066000820151816000019080519060200190620006bc929190620008d0565b506020820151816001019080519060200190620006db929190620008d0565b5060408201518160020155606082015181600301556080820151816004015560a0820151816005015560c0820151816006015590505062000728600d6200089160201b6200204e1760201c565b505050505050505050505062001115565b620007df8484848460405160240162000756949392919062000d5e565b6040516020818303038152906040527f8d142cdd000000000000000000000000000000000000000000000000000000007bffffffffffffffffffffffffffffffffffffffffffffffffffffffff19166020820180517bffffffffffffffffffffffffffffffffffffffffffffffffffffffff8381831617835250505050620008a760201b60201c565b50505050565b6200088b8484848460405160240162000802949392919062000dc0565b6040516020818303038152906040527f08ee5666000000000000000000000000000000000000000000000000000000007bffffffffffffffffffffffffffffffffffffffffffffffffffffffff19166020820180517bffffffffffffffffffffffffffffffffffffffffffffffffffffffff8381831617835250505050620008a760201b60201c565b50505050565b6001816000016000828254019250508190555050565b60008151905060006a636f6e736f6c652e6c6f679050602083016000808483855afa5050505050565b828054620008de9062000f8a565b90600052602060002090601f0160209004810192826200090257600085556200094e565b82601f106200091d57805160ff19168380011785556200094e565b828001600101855582156200094e579182015b828111156200094d57825182559160200191906001019062000930565b5b5090506200095d919062000961565b5090565b5b808211156200097c57600081600090555060010162000962565b5090565b600062000997620009918462000e3d565b62000e14565b9050808382526020820190508260005b85811015620009db5781518501620009c0888262000af9565b845260208401935060208301925050600181019050620009a7565b5050509392505050565b6000620009fc620009f68462000e6c565b62000e14565b9050808382526020820190508285602086028201111562000a1c57600080fd5b60005b8581101562000a50578162000a35888262000b26565b84526020840193506020830192505060018101905062000a1f565b5050509392505050565b600062000a7162000a6b8462000e9b565b62000e14565b90508281526020810184848401111562000a8a57600080fd5b62000a9784828562000f54565b509392505050565b600082601f83011262000ab157600080fd5b815162000ac384826020860162000980565b91505092915050565b600082601f83011262000ade57600080fd5b815162000af0848260208601620009e5565b91505092915050565b600082601f83011262000b0b57600080fd5b815162000b1d84826020860162000a5a565b91505092915050565b60008151905062000b3781620010fb565b92915050565b60008060008060008060008060008060006101608c8e03121562000b6057600080fd5b60008c015167ffffffffffffffff81111562000b7b57600080fd5b62000b898e828f0162000a9f565b9b505060208c015167ffffffffffffffff81111562000ba757600080fd5b62000bb58e828f0162000a9f565b9a505060408c015167ffffffffffffffff81111562000bd357600080fd5b62000be18e828f0162000acc565b99505060608c015167ffffffffffffffff81111562000bff57600080fd5b62000c0d8e828f0162000acc565b98505060808c015167ffffffffffffffff81111562000c2b57600080fd5b62000c398e828f0162000acc565b97505060a08c015167ffffffffffffffff81111562000c5757600080fd5b62000c658e828f0162000acc565b96505060c08c015167ffffffffffffffff81111562000c8357600080fd5b62000c918e828f0162000af9565b95505060e08c015167ffffffffffffffff81111562000caf57600080fd5b62000cbd8e828f0162000af9565b94505061010062000cd18e828f0162000b26565b93505061012062000ce58e828f0162000b26565b92505061014062000cf98e828f0162000b26565b9150509295989b509295989b9093969950565b600062000d198262000ed1565b62000d25818562000edc565b935062000d3781856020860162000f54565b62000d4281620010ea565b840191505092915050565b62000d588162000f4a565b82525050565b6000608082019050818103600083015262000d7a818762000d0c565b9050818103602083015262000d90818662000d0c565b905062000da1604083018562000d4d565b818103606083015262000db5818462000d0c565b905095945050505050565b6000608082019050818103600083015262000ddc818762000d0c565b905062000ded602083018662000d4d565b62000dfc604083018562000d4d565b62000e0b606083018462000d4d565b95945050505050565b600062000e2062000e33565b905062000e2e828262000fc0565b919050565b6000604051905090565b600067ffffffffffffffff82111562000e5b5762000e5a620010bb565b5b602082029050602081019050919050565b600067ffffffffffffffff82111562000e8a5762000e89620010bb565b5b602082029050602081019050919050565b600067ffffffffffffffff82111562000eb95762000eb8620010bb565b5b62000ec482620010ea565b9050602081019050919050565b600081519050919050565b600082825260208201905092915050565b600062000efa8262000f4a565b915062000f078362000f4a565b9250827fffffffffffffffffffffffffffffffffffffffffffffffffffffffffffffffff0382111562000f3f5762000f3e6200102e565b5b828201905092915050565b6000819050919050565b60005b8381101562000f7457808201518184015260208101905062000f57565b8381111562000f84576000848401525b50505050565b6000600282049050600182168062000fa357607f821691505b6020821081141562000fba5762000fb96200108c565b5b50919050565b62000fcb82620010ea565b810181811067ffffffffffffffff8211171562000fed5762000fec620010bb565b5b80604052505050565b6000620010038262000f4a565b9150620010108362000f4a565b9250826200102357620010226200105d565b5b828206905092915050565b7f4e487b7100000000000000000000000000000000000000000000000000000000600052601160045260246000fd5b7f4e487b7100000000000000000000000000000000000000000000000000000000600052601260045260246000fd5b7f4e487b7100000000000000000000000000000000000000000000000000000000600052602260045260246000fd5b7f4e487b7100000000000000000000000000000000000000000000000000000000600052604160045260246000fd5b6000601f19601f8301169050919050565b620011068162000f4a565b81146200111257600080fd5b50565b614eec80620011256000396000f3fe608060405234801561001057600080fd5b50600436106101425760003560e01c806398da4c95116100b8578063c87b56dd1161007c578063c87b56dd14610397578063c8cf27f4146103c7578063d4f24c5b146103e5578063e985e9c5146103ef578063efa1c4821461041f578063f8b81ef71461043d57610142565b806398da4c95146102e5578063a22cb4651461031d578063a9c3267914610339578063b88d4fde1461035d578063b953084e1461037957610142565b806323b872dd1161010a57806323b872dd146101ff57806342842e0e1461021b5780636352211e1461023757806370a08231146102675780637df124a11461029757806395d89b41146102c757610142565b806301ffc9a7146101475780630665f9611461017757806306fdde0314610195578063081812fc146101b3578063095ea7b3146101e3575b600080fd5b610161600480360381019061015c9190613443565b610459565b60405161016e9190613ded565b60405180910390f35b61017f61053b565b60405161018c91906141ee565b60405180910390f35b61019d6106ab565b6040516101aa9190613e08565b60405180910390f35b6101cd60048036038101906101c89190613495565b61073d565b6040516101da9190613d0b565b60405180910390f35b6101fd60048036038101906101f89190613407565b6107c2565b005b61021960048036038101906102149190613301565b6108da565b005b61023560048036038101906102309190613301565b61093a565b005b610251600480360381019061024c9190613495565b61095a565b60405161025e9190613d0b565b60405180910390f35b610281600480360381019061027c919061329c565b610a0c565b60405161028e9190614232565b60405180910390f35b6102b160048036038101906102ac919061329c565b610ac4565b6040516102be9190614232565b60405180910390f35b6102cf610adc565b6040516102dc9190613e08565b60405180910390f35b6102ff60048036038101906102fa9190613495565b610b6e565b6040516103149998979695949392919061424d565b60405180910390f35b610337600480360381019061033291906133cb565b610ccc565b005b610341610ce2565b6040516103549796959493929190613ed7565b60405180910390f35b61037760048036038101906103729190613350565b610e22565b005b610381610e84565b60405161038e9190613dcb565b60405180910390f35b6103b160048036038101906103ac9190613495565b61104e565b6040516103be9190613e08565b60405180910390f35b6103cf611288565b6040516103dc9190614210565b60405180910390f35b6103ed611485565b005b610409600480360381019061040491906132c5565b61187e565b6040516104169190613ded565b60405180910390f35b610427611912565b6040516104349190613da9565b60405180910390f35b61045760048036038101906104529190613495565b6119a0565b005b60007f80ac58cd000000000000000000000000000000000000000000000000000000007bffffffffffffffffffffffffffffffffffffffffffffffffffffffff1916827bffffffffffffffffffffffffffffffffffffffffffffffffffffffff1916148061052457507f5b5e139f000000000000000000000000000000000000000000000000000000007bffffffffffffffffffffffffffffffffffffffffffffffffffffffff1916827bffffffffffffffffffffffffffffffffffffffffffffffffffffffff1916145b80610534575061053382612064565b5b9050919050565b61054361309f565b60066040518060e0016040529081600082018054610560906145cf565b80601f016020809104026020016040519081016040528092919081815260200182805461058c906145cf565b80156105d95780601f106105ae576101008083540402835291602001916105d9565b820191906000526020600020905b8154815290600101906020018083116105bc57829003601f168201915b505050505081526020016001820180546105f2906145cf565b80601f016020809104026020016040519081016040528092919081815260200182805461061e906145cf565b801561066b5780601f106106405761010080835404028352916020019161066b565b820191906000526020600020905b81548152906001019060200180831161064e57829003601f168201915b5050505050815260200160028201548152602001600382015481526020016004820154815260200160058201548152602001600682015481525050905090565b6060600080546106ba906145cf565b80601f01602080910402602001604051908101604052809291908181526020018280546106e6906145cf565b80156107335780601f1061070857610100808354040283529160200191610733565b820191906000526020600020905b81548152906001019060200180831161071657829003601f168201915b5050505050905090565b6000610748826120ce565b610787576040517f08c379a000000000000000000000000000000000000000000000000000000000815260040161077e9061416e565b60405180910390fd5b6004600083815260200190815260200160002060009054906101000a900473ffffffffffffffffffffffffffffffffffffffff169050919050565b60006107cd8261095a565b90508073ffffffffffffffffffffffffffffffffffffffff168373ffffffffffffffffffffffffffffffffffffffff16141561083e576040517f08c379a00000000000000000000000000000000000000000000000000000000081526004016108359061418e565b60405180910390fd5b8073ffffffffffffffffffffffffffffffffffffffff1661085d61213a565b73ffffffffffffffffffffffffffffffffffffffff16148061088c575061088b8161088661213a565b61187e565b5b6108cb576040517f08c379a00000000000000000000000000000000000000000000000000000000081526004016108c2906140ee565b60405180910390fd5b6108d58383612142565b505050565b6108eb6108e561213a565b826121fb565b61092a576040517f08c379a0000000000000000000000000000000000000000000000000000000008152600401610921906141ce565b60405180910390fd5b6109358383836122d9565b505050565b61095583838360405180602001604052806000815250610e22565b505050565b6000806002600084815260200190815260200160002060009054906101000a900473ffffffffffffffffffffffffffffffffffffffff169050600073ffffffffffffffffffffffffffffffffffffffff168173ffffffffffffffffffffffffffffffffffffffff161415610a03576040517f08c379a00000000000000000000000000000000000000000000000000000000081526004016109fa9061412e565b60405180910390fd5b80915050919050565b60008073ffffffffffffffffffffffffffffffffffffffff168273ffffffffffffffffffffffffffffffffffffffff161415610a7d576040517f08c379a0000000000000000000000000000000000000000000000000000000008152600401610a749061410e565b60405180910390fd5b600360008373ffffffffffffffffffffffffffffffffffffffff1673ffffffffffffffffffffffffffffffffffffffff168152602001908152602001600020549050919050565b60116020528060005260406000206000915090505481565b606060018054610aeb906145cf565b80601f0160208091040260200160405190810160405280929190818152602001828054610b17906145cf565b8015610b645780601f10610b3957610100808354040283529160200191610b64565b820191906000526020600020905b815481529060010190602001808311610b4757829003601f168201915b5050505050905090565b6010602052806000526040600020600091509050806000015490806001018054610b97906145cf565b80601f0160208091040260200160405190810160405280929190818152602001828054610bc3906145cf565b8015610c105780601f10610be557610100808354040283529160200191610c10565b820191906000526020600020905b815481529060010190602001808311610bf357829003601f168201915b505050505090806002018054610c25906145cf565b80601f0160208091040260200160405190810160405280929190818152602001828054610c51906145cf565b8015610c9e5780601f10610c7357610100808354040283529160200191610c9e565b820191906000526020600020905b815481529060010190602001808311610c8157829003601f168201915b5050505050908060030154908060040154908060050154908060060154908060070154908060080154905089565b610cde610cd761213a565b8383612540565b5050565b6006806000018054610cf3906145cf565b80601f0160208091040260200160405190810160405280929190818152602001828054610d1f906145cf565b8015610d6c5780601f10610d4157610100808354040283529160200191610d6c565b820191906000526020600020905b815481529060010190602001808311610d4f57829003601f168201915b505050505090806001018054610d81906145cf565b80601f0160208091040260200160405190810160405280929190818152602001828054610dad906145cf565b8015610dfa5780601f10610dcf57610100808354040283529160200191610dfa565b820191906000526020600020905b815481529060010190602001808311610ddd57829003601f168201915b5050505050908060020154908060030154908060040154908060050154908060060154905087565b610e33610e2d61213a565b836121fb565b610e72576040517f08c379a0000000000000000000000000000000000000000000000000000000008152600401610e69906141ce565b60405180910390fd5b610e7e848484846126ad565b50505050565b6060600f805480602002602001604051908101604052809291908181526020016000905b8282101561104557838290600052602060002090600902016040518061012001604052908160008201548152602001600182018054610ee6906145cf565b80601f0160208091040260200160405190810160405280929190818152602001828054610f12906145cf565b8015610f5f5780601f10610f3457610100808354040283529160200191610f5f565b820191906000526020600020905b815481529060010190602001808311610f4257829003601f168201915b50505050508152602001600282018054610f78906145cf565b80601f0160208091040260200160405190810160405280929190818152602001828054610fa4906145cf565b8015610ff15780601f10610fc657610100808354040283529160200191610ff1565b820191906000526020600020905b815481529060010190602001808311610fd457829003601f168201915b50505050508152602001600382015481526020016004820154815260200160058201548152602001600682015481526020016007820154815260200160088201548152505081526020019060010190610ea8565b50505050905090565b6060600060106000848152602001908152602001600020604051806101200160405290816000820154815260200160018201805461108b906145cf565b80601f01602080910402602001604051908101604052809291908181526020018280546110b7906145cf565b80156111045780601f106110d957610100808354040283529160200191611104565b820191906000526020600020905b8154815290600101906020018083116110e757829003601f168201915b5050505050815260200160028201805461111d906145cf565b80601f0160208091040260200160405190810160405280929190818152602001828054611149906145cf565b80156111965780601f1061116b57610100808354040283529160200191611196565b820191906000526020600020905b81548152906001019060200180831161117957829003601f168201915b505050505081526020016003820154815260200160048201548152602001600582015481526020016006820154815260200160078201548152602001600882015481525050905060006111ec8260600151612709565b905060006111fd8360800151612709565b9050600061120e8460a00151612709565b90506000611254856020015161122389612709565b876040015187878760405160200161124096959493929190613c44565b6040516020818303038152906040526128b6565b90506000816040516020016112699190613ce9565b6040516020818303038152906040529050809650505050505050919050565b6112906130dc565b6000601160003373ffffffffffffffffffffffffffffffffffffffff1673ffffffffffffffffffffffffffffffffffffffff1681526020019081526020016000205490506000811115611474576000601060008381526020019081526020016000206040518061012001604052908160008201548152602001600182018054611318906145cf565b80601f0160208091040260200160405190810160405280929190818152602001828054611344906145cf565b80156113915780601f1061136657610100808354040283529160200191611391565b820191906000526020600020905b81548152906001019060200180831161137457829003601f168201915b505050505081526020016002820180546113aa906145cf565b80601f01602080910402602001604051908101604052809291908181526020018280546113d6906145cf565b80156114235780601f106113f857610100808354040283529160200191611423565b820191906000526020600020905b81548152906001019060200180831161140657829003601f168201915b50505050508152602001600382015481526020016004820154815260200160058201548152602001600682015481526020016007820154815260200160088201548152505090508092505050611482565b61147c6130dc565b80925050505b90565b6000601160003373ffffffffffffffffffffffffffffffffffffffff1673ffffffffffffffffffffffffffffffffffffffff16815260200190815260200160002054905060006010600083815260200190815260200160002090506115986040518060600160405280603d8152602001614de4603d913982600101805461150b906145cf565b80601f0160208091040260200160405190810160405280929190818152602001828054611537906145cf565b80156115845780601f1061155957610100808354040283529160200191611584565b820191906000526020600020905b81548152906001019060200180831161156757829003601f168201915b505050505083600301548460070154612a74565b61166f6040518060400160405280601d81526020017f0a426f7373202573206861732025732048502c20616e64202573204144000000815250600660000180546115e1906145cf565b80601f016020809104026020016040519081016040528092919081815260200182805461160d906145cf565b801561165a5780601f1061162f5761010080835404028352916020019161165a565b820191906000526020600020905b81548152906001019060200180831161163d57829003601f168201915b50505050506006600201546006800154612a74565b60008160030154116116b6576040517f08c379a00000000000000000000000000000000000000000000000000000000081526004016116ad9061406e565b60405180910390fd5b6000600660020154116116fe576040517f08c379a00000000000000000000000000000000000000000000000000000000081526004016116f5906141ae565b60405180910390fd5b8060070154600660020154101561171f576000600660020181905550611782565b6014600e541015611781578060070154600261173b919061448b565b60066002015461174b91906144e5565b6006600201819055507fb9351c593ca16bfe49ab9b34f38737b942cc7fafc6716896152177666bc154bd60405160405180910390a15b5b6006800154816003015410156117a157600081600301819055506117be565b600680015481600301546117b591906144e5565b81600301819055505b6064600e5442446117cf9190614404565b6117d99190614404565b6117e3919061467b565b600e81905550611810604051806060016040528060258152602001614dbf60259139600660020154612b16565b611836604051806060016040528060288152602001614e61602891398260030154612b16565b7f32bd565ee3f2cb5ddd742bbecd6048d3e9abe90b3827a40c2b72d232e71e3c9d33600660020154836003015460405161187293929190613d72565b60405180910390a15050565b6000600560008473ffffffffffffffffffffffffffffffffffffffff1673ffffffffffffffffffffffffffffffffffffffff16815260200190815260200160002060008373ffffffffffffffffffffffffffffffffffffffff1673ffffffffffffffffffffffffffffffffffffffff16815260200190815260200160002060009054906101000a900460ff16905092915050565b6060601280548060200260200160405190810160405280929190818152602001828054801561199657602002820191906000526020600020905b8160009054906101000a900473ffffffffffffffffffffffffffffffffffffffff1673ffffffffffffffffffffffffffffffffffffffff168152602001906001019080831161194c575b5050505050905090565b60006119ac600d612bb2565b90506119b83382612bc0565b604051806101200160405280838152602001600f8481548110611a04577f4e487b7100000000000000000000000000000000000000000000000000000000600052603260045260246000fd5b90600052602060002090600902016001018054611a20906145cf565b80601f0160208091040260200160405190810160405280929190818152602001828054611a4c906145cf565b8015611a995780601f10611a6e57610100808354040283529160200191611a99565b820191906000526020600020905b815481529060010190602001808311611a7c57829003601f168201915b50505050508152602001600f8481548110611add577f4e487b7100000000000000000000000000000000000000000000000000000000600052603260045260246000fd5b90600052602060002090600902016002018054611af9906145cf565b80601f0160208091040260200160405190810160405280929190818152602001828054611b25906145cf565b8015611b725780601f10611b4757610100808354040283529160200191611b72565b820191906000526020600020905b815481529060010190602001808311611b5557829003601f168201915b50505050508152602001600f8481548110611bb6577f4e487b7100000000000000000000000000000000000000000000000000000000600052603260045260246000fd5b9060005260206000209060090201600301548152602001600f8481548110611c07577f4e487b7100000000000000000000000000000000000000000000000000000000600052603260045260246000fd5b9060005260206000209060090201600401548152602001600f8481548110611c58577f4e487b7100000000000000000000000000000000000000000000000000000000600052603260045260246000fd5b9060005260206000209060090201600501548152602001600f8481548110611ca9577f4e487b7100000000000000000000000000000000000000000000000000000000600052603260045260246000fd5b9060005260206000209060090201600601548152602001600f8481548110611cfa577f4e487b7100000000000000000000000000000000000000000000000000000000600052603260045260246000fd5b9060005260206000209060090201600701548152602001600f8481548110611d4b577f4e487b7100000000000000000000000000000000000000000000000000000000600052603260045260246000fd5b90600052602060002090600902016008015481525060106000838152602001908152602001600020600082015181600001556020820151816001019080519060200190611d99929190613128565b506040820151816002019080519060200190611db6929190613128565b50606082015181600301556080820151816004015560a0820151816005015560c0820151816006015560e082015181600701556101008201518160080155905050611e1a6040518060600160405280602e8152602001614e89602e91398284612bde565b80601160003373ffffffffffffffffffffffffffffffffffffffff1673ffffffffffffffffffffffffffffffffffffffff168152602001908152602001600020819055506012339080600181540180825580915050600190039060005260206000200160009091909190916101000a81548173ffffffffffffffffffffffffffffffffffffffff021916908373ffffffffffffffffffffffffffffffffffffffff160217905550611ecb600d61204e565b7f4bc303fd457a97b4691b9af582ce71868a3d258638c8d4f8c60988a0f0bfb8cd338284604051611efe93929190613d72565b60405180910390a15050565b611fa684848484604051602401611f249493929190613e2a565b6040516020818303038152906040527f8d142cdd000000000000000000000000000000000000000000000000000000007bffffffffffffffffffffffffffffffffffffffffffffffffffffffff19166020820180517bffffffffffffffffffffffffffffffffffffffffffffffffffffffff8381831617835250505050612c7d565b50505050565b61204884848484604051602401611fc69493929190613fc2565b6040516020818303038152906040527f08ee5666000000000000000000000000000000000000000000000000000000007bffffffffffffffffffffffffffffffffffffffffffffffffffffffff19166020820180517bffffffffffffffffffffffffffffffffffffffffffffffffffffffff8381831617835250505050612c7d565b50505050565b6001816000016000828254019250508190555050565b60007f01ffc9a7000000000000000000000000000000000000000000000000000000007bffffffffffffffffffffffffffffffffffffffffffffffffffffffff1916827bffffffffffffffffffffffffffffffffffffffffffffffffffffffff1916149050919050565b60008073ffffffffffffffffffffffffffffffffffffffff166002600084815260200190815260200160002060009054906101000a900473ffffffffffffffffffffffffffffffffffffffff1673ffffffffffffffffffffffffffffffffffffffff1614159050919050565b600033905090565b816004600083815260200190815260200160002060006101000a81548173ffffffffffffffffffffffffffffffffffffffff021916908373ffffffffffffffffffffffffffffffffffffffff160217905550808273ffffffffffffffffffffffffffffffffffffffff166121b58361095a565b73ffffffffffffffffffffffffffffffffffffffff167f8c5be1e5ebec7d5bd14f71427d1e84f3dd0314c0f7b2291e5b200ac8c7c3b92560405160405180910390a45050565b6000612206826120ce565b612245576040517f08c379a000000000000000000000000000000000000000000000000000000000815260040161223c906140ce565b60405180910390fd5b60006122508361095a565b90508073ffffffffffffffffffffffffffffffffffffffff168473ffffffffffffffffffffffffffffffffffffffff1614806122925750612291818561187e565b5b806122d057508373ffffffffffffffffffffffffffffffffffffffff166122b88461073d565b73ffffffffffffffffffffffffffffffffffffffff16145b91505092915050565b8273ffffffffffffffffffffffffffffffffffffffff166122f98261095a565b73ffffffffffffffffffffffffffffffffffffffff161461234f576040517f08c379a00000000000000000000000000000000000000000000000000000000081526004016123469061402e565b60405180910390fd5b600073ffffffffffffffffffffffffffffffffffffffff168273ffffffffffffffffffffffffffffffffffffffff1614156123bf576040517f08c379a00000000000000000000000000000000000000000000000000000000081526004016123b69061408e565b60405180910390fd5b6123ca838383612ca6565b6123d5600082612142565b6001600360008573ffffffffffffffffffffffffffffffffffffffff1673ffffffffffffffffffffffffffffffffffffffff168152602001908152602001600020600082825461242591906144e5565b925050819055506001600360008473ffffffffffffffffffffffffffffffffffffffff1673ffffffffffffffffffffffffffffffffffffffff168152602001908152602001600020600082825461247c9190614404565b92505081905550816002600083815260200190815260200160002060006101000a81548173ffffffffffffffffffffffffffffffffffffffff021916908373ffffffffffffffffffffffffffffffffffffffff160217905550808273ffffffffffffffffffffffffffffffffffffffff168473ffffffffffffffffffffffffffffffffffffffff167fddf252ad1be2c89b69c2b068fc378daa952ba7f163c4a11628f55a4df523b3ef60405160405180910390a461253b838383612cab565b505050565b8173ffffffffffffffffffffffffffffffffffffffff168373ffffffffffffffffffffffffffffffffffffffff1614156125af576040517f08c379a00000000000000000000000000000000000000000000000000000000081526004016125a6906140ae565b60405180910390fd5b80600560008573ffffffffffffffffffffffffffffffffffffffff1673ffffffffffffffffffffffffffffffffffffffff16815260200190815260200160002060008473ffffffffffffffffffffffffffffffffffffffff1673ffffffffffffffffffffffffffffffffffffffff16815260200190815260200160002060006101000a81548160ff0219169083151502179055508173ffffffffffffffffffffffffffffffffffffffff168373ffffffffffffffffffffffffffffffffffffffff167f17307eab39ab6107e8899845ad3d59bd9653f200f220920489ca2b5937696c31836040516126a09190613ded565b60405180910390a3505050565b6126b88484846122d9565b6126c484848484612cb0565b612703576040517f08c379a00000000000000000000000000000000000000000000000000000000081526004016126fa9061400e565b60405180910390fd5b50505050565b60606000821415612751576040518060400160405280600181526020017f300000000000000000000000000000000000000000000000000000000000000081525090506128b1565b600082905060005b6000821461278357808061276c90614632565b915050600a8261277c919061445a565b9150612759565b60008167ffffffffffffffff8111156127c5577f4e487b7100000000000000000000000000000000000000000000000000000000600052604160045260246000fd5b6040519080825280601f01601f1916602001820160405280156127f75781602001600182028036833780820191505090505b5090505b600085146128aa5760018261281091906144e5565b9150600a8561281f919061467b565b603061282b9190614404565b60f81b818381518110612867577f4e487b7100000000000000000000000000000000000000000000000000000000600052603260045260246000fd5b60200101907effffffffffffffffffffffffffffffffffffffffffffffffffffffffffffff1916908160001a905350600a856128a3919061445a565b94506127fb565b8093505050505b919050565b606060008251905060008114156128df5760405180602001604052806000815250915050612a6f565b600060036002836128f09190614404565b6128fa919061445a565b6004612906919061448b565b905060006020826129179190614404565b67ffffffffffffffff811115612956577f4e487b7100000000000000000000000000000000000000000000000000000000600052604160045260246000fd5b6040519080825280601f01601f1916602001820160405280156129885781602001600182028036833780820191505090505b5090506000604051806060016040528060408152602001614e21604091399050600181016020830160005b86811015612a2c5760038101905062ffffff818a015116603f8160121c168401518060081b905060ff603f83600c1c1686015116810190508060081b905060ff603f8360061c1686015116810190508060081b905060ff603f831686015116810190508060e01b905080845260048401935050506129b3565b506003860660018114612a465760028114612a5657612a61565b613d3d60f01b6002830352612a61565b603d60f81b60018303525b508484525050819450505050505b919050565b612b1084848484604051602401612a8e9493929190613e84565b6040516020818303038152906040527fd5cf17d0000000000000000000000000000000000000000000000000000000007bffffffffffffffffffffffffffffffffffffffffffffffffffffffff19166020820180517bffffffffffffffffffffffffffffffffffffffffffffffffffffffff8381831617835250505050612c7d565b50505050565b612bae8282604051602401612b2c929190613f54565b6040516020818303038152906040527f9710a9d0000000000000000000000000000000000000000000000000000000007bffffffffffffffffffffffffffffffffffffffffffffffffffffffff19166020820180517bffffffffffffffffffffffffffffffffffffffffffffffffffffffff8381831617835250505050612c7d565b5050565b600081600001549050919050565b612bda828260405180602001604052806000815250612e47565b5050565b612c78838383604051602401612bf693929190613f84565b6040516020818303038152906040527f969cdd03000000000000000000000000000000000000000000000000000000007bffffffffffffffffffffffffffffffffffffffffffffffffffffffff19166020820180517bffffffffffffffffffffffffffffffffffffffffffffffffffffffff8381831617835250505050612c7d565b505050565b60008151905060006a636f6e736f6c652e6c6f679050602083016000808483855afa5050505050565b505050565b505050565b6000612cd18473ffffffffffffffffffffffffffffffffffffffff16612ea2565b15612e3a578373ffffffffffffffffffffffffffffffffffffffff1663150b7a02612cfa61213a565b8786866040518563ffffffff1660e01b8152600401612d1c9493929190613d26565b602060405180830381600087803b158015612d3657600080fd5b505af1925050508015612d6757506040513d601f19601f82011682018060405250810190612d64919061346c565b60015b612dea573d8060008114612d97576040519150601f19603f3d011682016040523d82523d6000602084013e612d9c565b606091505b50600081511415612de2576040517f08c379a0000000000000000000000000000000000000000000000000000000008152600401612dd99061400e565b60405180910390fd5b805181602001fd5b63150b7a0260e01b7bffffffffffffffffffffffffffffffffffffffffffffffffffffffff1916817bffffffffffffffffffffffffffffffffffffffffffffffffffffffff191614915050612e3f565b600190505b949350505050565b612e518383612ec5565b612e5e6000848484612cb0565b612e9d576040517f08c379a0000000000000000000000000000000000000000000000000000000008152600401612e949061400e565b60405180910390fd5b505050565b6000808273ffffffffffffffffffffffffffffffffffffffff163b119050919050565b600073ffffffffffffffffffffffffffffffffffffffff168273ffffffffffffffffffffffffffffffffffffffff161415612f35576040517f08c379a0000000000000000000000000000000000000000000000000000000008152600401612f2c9061414e565b60405180910390fd5b612f3e816120ce565b15612f7e576040517f08c379a0000000000000000000000000000000000000000000000000000000008152600401612f759061404e565b60405180910390fd5b612f8a60008383612ca6565b6001600360008473ffffffffffffffffffffffffffffffffffffffff1673ffffffffffffffffffffffffffffffffffffffff1681526020019081526020016000206000828254612fda9190614404565b92505081905550816002600083815260200190815260200160002060006101000a81548173ffffffffffffffffffffffffffffffffffffffff021916908373ffffffffffffffffffffffffffffffffffffffff160217905550808273ffffffffffffffffffffffffffffffffffffffff16600073ffffffffffffffffffffffffffffffffffffffff167fddf252ad1be2c89b69c2b068fc378daa952ba7f163c4a11628f55a4df523b3ef60405160405180910390a461309b60008383612cab565b5050565b6040518060e00160405280606081526020016060815260200160008152602001600081526020016000815260200160008152602001600081525090565b6040518061012001604052806000815260200160608152602001606081526020016000815260200160008152602001600081526020016000815260200160008152602001600081525090565b828054613134906145cf565b90600052602060002090601f016020900481019282613156576000855561319d565b82601f1061316f57805160ff191683800117855561319d565b8280016001018555821561319d579182015b8281111561319c578251825591602001919060010190613181565b5b5090506131aa91906131ae565b5090565b5b808211156131c75760008160009055506001016131af565b5090565b60006131de6131d98461430d565b6142e8565b9050828152602081018484840111156131f657600080fd5b61320184828561458d565b509392505050565b60008135905061321881614d62565b92915050565b60008135905061322d81614d79565b92915050565b60008135905061324281614d90565b92915050565b60008151905061325781614d90565b92915050565b600082601f83011261326e57600080fd5b813561327e8482602086016131cb565b91505092915050565b60008135905061329681614da7565b92915050565b6000602082840312156132ae57600080fd5b60006132bc84828501613209565b91505092915050565b600080604083850312156132d857600080fd5b60006132e685828601613209565b92505060206132f785828601613209565b9150509250929050565b60008060006060848603121561331657600080fd5b600061332486828701613209565b935050602061333586828701613209565b925050604061334686828701613287565b9150509250925092565b6000806000806080858703121561336657600080fd5b600061337487828801613209565b945050602061338587828801613209565b935050604061339687828801613287565b925050606085013567ffffffffffffffff8111156133b357600080fd5b6133bf8782880161325d565b91505092959194509250565b600080604083850312156133de57600080fd5b60006133ec85828601613209565b92505060206133fd8582860161321e565b9150509250929050565b6000806040838503121561341a57600080fd5b600061342885828601613209565b925050602061343985828601613287565b9150509250929050565b60006020828403121561345557600080fd5b600061346384828501613233565b91505092915050565b60006020828403121561347e57600080fd5b600061348c84828501613248565b91505092915050565b6000602082840312156134a757600080fd5b60006134b584828501613287565b91505092915050565b60006134ca83836134ea565b60208301905092915050565b60006134e28383613a8e565b905092915050565b6134f381614519565b82525050565b61350281614519565b82525050565b60006135138261435e565b61351d81856143a4565b93506135288361433e565b8060005b8381101561355957815161354088826134be565b975061354b8361438a565b92505060018101905061352c565b5085935050505092915050565b600061357182614369565b61357b81856143b5565b93508360208202850161358d8561434e565b8060005b858110156135c957848403895281516135aa85826134d6565b94506135b583614397565b925060208a01995050600181019050613591565b50829750879550505050505092915050565b6135e48161452b565b82525050565b60006135f582614374565b6135ff81856143c6565b935061360f81856020860161459c565b61361881614768565b840191505092915050565b600061362e8261437f565b61363881856143d7565b935061364881856020860161459c565b61365181614768565b840191505092915050565b60006136678261437f565b61367181856143e8565b935061368181856020860161459c565b61368a81614768565b840191505092915050565b60006136a08261437f565b6136aa81856143f9565b93506136ba81856020860161459c565b80840191505092915050565b60006136d3600b836143f9565b91506136de82614779565b600b82019050919050565b60006136f66032836143e8565b9150613701826147a2565b604082019050919050565b60006137196025836143e8565b9150613724826147f1565b604082019050919050565b600061373c601c836143e8565b915061374782614840565b602082019050919050565b600061375f6015836143e8565b915061376a82614869565b602082019050919050565b6000613782600e836143f9565b915061378d82614892565b600e82019050919050565b60006137a56024836143e8565b91506137b0826148bb565b604082019050919050565b60006137c86019836143e8565b91506137d38261490a565b602082019050919050565b60006137eb602c836143e8565b91506137f682614933565b604082019050919050565b600061380e6038836143e8565b915061381982614982565b604082019050919050565b6000613831602a836143e8565b915061383c826149d1565b604082019050919050565b60006138546029836143e8565b915061385f82614a20565b604082019050919050565b60006138776004836143f9565b915061388282614a6f565b600482019050919050565b600061389a6020836143e8565b91506138a582614a98565b602082019050919050565b60006138bd602c836143e8565b91506138c882614ac1565b604082019050919050565b60006138e0600a836143f9565b91506138eb82614b10565b600a82019050919050565b60006139036026836143f9565b915061390e82614b39565b602682019050919050565b60006139266021836143e8565b915061393182614b88565b604082019050919050565b6000613949601d836143f9565b915061395482614bd7565b601d82019050919050565b600061396c6069836143f9565b915061397782614c00565b606982019050919050565b600061398f6013836143e8565b915061399a82614c9b565b602082019050919050565b60006139b26031836143e8565b91506139bd82614cc4565b604082019050919050565b60006139d5603d836143f9565b91506139e082614d13565b603d82019050919050565b600060e0830160008301518482036000860152613a088282613623565b91505060208301518482036020860152613a228282613623565b9150506040830151613a376040860182613c26565b506060830151613a4a6060860182613c26565b506080830151613a5d6080860182613c26565b5060a0830151613a7060a0860182613c26565b5060c0830151613a8360c0860182613c26565b508091505092915050565b600061012083016000830151613aa76000860182613c26565b5060208301518482036020860152613abf8282613623565b91505060408301518482036040860152613ad98282613623565b9150506060830151613aee6060860182613c26565b506080830151613b016080860182613c26565b5060a0830151613b1460a0860182613c26565b5060c0830151613b2760c0860182613c26565b5060e0830151613b3a60e0860182613c26565b50610100830151613b4f610100860182613c26565b508091505092915050565b600061012083016000830151613b736000860182613c26565b5060208301518482036020860152613b8b8282613623565b91505060408301518482036040860152613ba58282613623565b9150506060830151613bba6060860182613c26565b506080830151613bcd6080860182613c26565b5060a0830151613be060a0860182613c26565b5060c0830151613bf360c0860182613c26565b5060e0830151613c0660e0860182613c26565b50610100830151613c1b610100860182613c26565b508091505092915050565b613c2f81614583565b82525050565b613c3e81614583565b82525050565b6000613c4f826138d3565b9150613c5b8289613695565b9150613c66826136c6565b9150613c728288613695565b9150613c7d8261395f565b9150613c898287613695565b9150613c94826139c8565b9150613ca08286613695565b9150613cab82613775565b9150613cb78285613695565b9150613cc2826138f6565b9150613cce8284613695565b9150613cd98261386a565b9150819050979650505050505050565b6000613cf48261393c565b9150613d008284613695565b915081905092915050565b6000602082019050613d2060008301846134f9565b92915050565b6000608082019050613d3b60008301876134f9565b613d4860208301866134f9565b613d556040830185613c35565b8181036060830152613d6781846135ea565b905095945050505050565b6000606082019050613d8760008301866134f9565b613d946020830185613c35565b613da16040830184613c35565b949350505050565b60006020820190508181036000830152613dc38184613508565b905092915050565b60006020820190508181036000830152613de58184613566565b905092915050565b6000602082019050613e0260008301846135db565b92915050565b60006020820190508181036000830152613e22818461365c565b905092915050565b60006080820190508181036000830152613e44818761365c565b90508181036020830152613e58818661365c565b9050613e676040830185613c35565b8181036060830152613e79818461365c565b905095945050505050565b60006080820190508181036000830152613e9e818761365c565b90508181036020830152613eb2818661365c565b9050613ec16040830185613c35565b613ece6060830184613c35565b95945050505050565b600060e0820190508181036000830152613ef1818a61365c565b90508181036020830152613f05818961365c565b9050613f146040830188613c35565b613f216060830187613c35565b613f2e6080830186613c35565b613f3b60a0830185613c35565b613f4860c0830184613c35565b98975050505050505050565b60006040820190508181036000830152613f6e818561365c565b9050613f7d6020830184613c35565b9392505050565b60006060820190508181036000830152613f9e818661365c565b9050613fad6020830185613c35565b613fba6040830184613c35565b949350505050565b60006080820190508181036000830152613fdc818761365c565b9050613feb6020830186613c35565b613ff86040830185613c35565b6140056060830184613c35565b95945050505050565b60006020820190508181036000830152614027816136e9565b9050919050565b600060208201905081810360008301526140478161370c565b9050919050565b600060208201905081810360008301526140678161372f565b9050919050565b6000602082019050818103600083015261408781613752565b9050919050565b600060208201905081810360008301526140a781613798565b9050919050565b600060208201905081810360008301526140c7816137bb565b9050919050565b600060208201905081810360008301526140e7816137de565b9050919050565b6000602082019050818103600083015261410781613801565b9050919050565b6000602082019050818103600083015261412781613824565b9050919050565b6000602082019050818103600083015261414781613847565b9050919050565b600060208201905081810360008301526141678161388d565b9050919050565b60006020820190508181036000830152614187816138b0565b9050919050565b600060208201905081810360008301526141a781613919565b9050919050565b600060208201905081810360008301526141c781613982565b9050919050565b600060208201905081810360008301526141e7816139a5565b9050919050565b6000602082019050818103600083015261420881846139eb565b905092915050565b6000602082019050818103600083015261422a8184613b5a565b905092915050565b60006020820190506142476000830184613c35565b92915050565b600061012082019050614263600083018c613c35565b8181036020830152614275818b61365c565b90508181036040830152614289818a61365c565b90506142986060830189613c35565b6142a56080830188613c35565b6142b260a0830187613c35565b6142bf60c0830186613c35565b6142cc60e0830185613c35565b6142da610100830184613c35565b9a9950505050505050505050565b60006142f2614303565b90506142fe8282614601565b919050565b6000604051905090565b600067ffffffffffffffff82111561432857614327614739565b5b61433182614768565b9050602081019050919050565b6000819050602082019050919050565b6000819050602082019050919050565b600081519050919050565b600081519050919050565b600081519050919050565b600081519050919050565b6000602082019050919050565b6000602082019050919050565b600082825260208201905092915050565b600082825260208201905092915050565b600082825260208201905092915050565b600082825260208201905092915050565b600082825260208201905092915050565b600081905092915050565b600061440f82614583565b915061441a83614583565b9250827fffffffffffffffffffffffffffffffffffffffffffffffffffffffffffffffff0382111561444f5761444e6146ac565b5b828201905092915050565b600061446582614583565b915061447083614583565b9250826144805761447f6146db565b5b828204905092915050565b600061449682614583565b91506144a183614583565b9250817fffffffffffffffffffffffffffffffffffffffffffffffffffffffffffffffff04831182151516156144da576144d96146ac565b5b828202905092915050565b60006144f082614583565b91506144fb83614583565b92508282101561450e5761450d6146ac565b5b828203905092915050565b600061452482614563565b9050919050565b60008115159050919050565b60007fffffffff0000000000000000000000000000000000000000000000000000000082169050919050565b600073ffffffffffffffffffffffffffffffffffffffff82169050919050565b6000819050919050565b82818337600083830152505050565b60005b838110156145ba57808201518184015260208101905061459f565b838111156145c9576000848401525b50505050565b600060028204905060018216806145e757607f821691505b602082108114156145fb576145fa61470a565b5b50919050565b61460a82614768565b810181811067ffffffffffffffff8211171561462957614628614739565b5b80604052505050565b600061463d82614583565b91507fffffffffffffffffffffffffffffffffffffffffffffffffffffffffffffffff8214156146705761466f6146ac565b5b600182019050919050565b600061468682614583565b915061469183614583565b9250826146a1576146a06146db565b5b828206905092915050565b7f4e487b7100000000000000000000000000000000000000000000000000000000600052601160045260246000fd5b7f4e487b7100000000000000000000000000000000000000000000000000000000600052601260045260246000fd5b7f4e487b7100000000000000000000000000000000000000000000000000000000600052602260045260246000fd5b7f4e487b7100000000000000000000000000000000000000000000000000000000600052604160045260246000fd5b6000601f19601f8301169050919050565b7f202d2d204e465420233a20000000000000000000000000000000000000000000600082015250565b7f4552433732313a207472616e7366657220746f206e6f6e20455243373231526560008201527f63656976657220696d706c656d656e7465720000000000000000000000000000602082015250565b7f4552433732313a207472616e736665722066726f6d20696e636f72726563742060008201527f6f776e6572000000000000000000000000000000000000000000000000000000602082015250565b7f4552433732313a20746f6b656e20616c7265616479206d696e74656400000000600082015250565b7f4572726f723a20506c6179657220697320646561640000000000000000000000600082015250565b7f2c20226d61785f76616c7565223a000000000000000000000000000000000000600082015250565b7f4552433732313a207472616e7366657220746f20746865207a65726f2061646460008201527f7265737300000000000000000000000000000000000000000000000000000000602082015250565b7f4552433732313a20617070726f766520746f2063616c6c657200000000000000600082015250565b7f4552433732313a206f70657261746f7220717565727920666f72206e6f6e657860008201527f697374656e7420746f6b656e0000000000000000000000000000000000000000602082015250565b7f4552433732313a20617070726f76652063616c6c6572206973206e6f74206f7760008201527f6e6572206e6f7220617070726f76656420666f7220616c6c0000000000000000602082015250565b7f4552433732313a2062616c616e636520717565727920666f7220746865207a6560008201527f726f206164647265737300000000000000000000000000000000000000000000602082015250565b7f4552433732313a206f776e657220717565727920666f72206e6f6e657869737460008201527f656e7420746f6b656e0000000000000000000000000000000000000000000000602082015250565b7f7d205d7d00000000000000000000000000000000000000000000000000000000600082015250565b7f4552433732313a206d696e7420746f20746865207a65726f2061646472657373600082015250565b7f4552433732313a20617070726f76656420717565727920666f72206e6f6e657860008201527f697374656e7420746f6b656e0000000000000000000000000000000000000000602082015250565b7f7b226e616d65223a202200000000000000000000000000000000000000000000600082015250565b7f7d2c207b202274726169745f74797065223a2022456e65726779222c2022766160008201527f6c7565223a200000000000000000000000000000000000000000000000000000602082015250565b7f4552433732313a20617070726f76616c20746f2063757272656e74206f776e6560008201527f7200000000000000000000000000000000000000000000000000000000000000602082015250565b7f646174613a6170706c69636174696f6e2f6a736f6e3b6261736536342c000000600082015250565b7f222c20226465736372697074696f6e223a20225468697320697320616e204e4660008201527f542074686174206c6574732070656f706c6520706c617920696e20746865206760208201527f616d65204d657461766572736520536c6179657221222c2022696d616765223a60408201527f2022697066733a2f2f0000000000000000000000000000000000000000000000606082015250565b7f4572726f723a20426f7373206973206465616400000000000000000000000000600082015250565b7f4552433732313a207472616e736665722063616c6c6572206973206e6f74206f60008201527f776e6572206e6f7220617070726f766564000000000000000000000000000000602082015250565b7f222c202261747472696275746573223a205b207b202274726169745f7479706560008201527f223a20224865616c746820506f696e7473222c202276616c7565223a20000000602082015250565b614d6b81614519565b8114614d7657600080fd5b50565b614d828161452b565b8114614d8d57600080fd5b50565b614d9981614537565b8114614da457600080fd5b50565b614db081614583565b8114614dbb57600080fd5b5056fe506c617965722061747461636b656420626f73732e204e657720626f73732068703a2025730a506c6179657220772f206368617261637465722025732061626f757420746f2061747461636b2c206861732025732048502c20616e642025732041444142434445464748494a4b4c4d4e4f505152535455565758595a6162636465666768696a6b6c6d6e6f707172737475767778797a303132333435363738392b2f426f73732061747461636b656420706c617965722e204e657720706c617965722068703a2025730a4d696e746564204e465420772f20746f6b656e496420257320616e6420636861726163746572496e646578202573a2646970667358221220397db25ee253dcdbb4eb56b09a0656299077b9a231a715e64c99178acb43fd5964736f6c63430008010033446f6e6520696e697469616c697a696e6720257320772f2048502025732c20696d67202573616e6420656e657267792c2025732c2061747461636b44616d6167652025732c2068704865616c696e67466163746f72202573",
  "linkReferences": {},
  "deployedLinkReferences": {}
}