{
  "_format": "hh-sol-artifact-1",
  "contractName": "MyEpicGame",
  "sourceName": "contracts/MyEpicGame.sol",
  "abi": [
    {
      "inputs": [
        {
          "internalType": "string[]",
          "name": "characterNames",
          "type": "string[]"
        },
        {
          "internalType": "string[]",
          "name": "characterImageURIs",
          "type": "string[]"
        },
        {
          "internalType": "uint256[]",
          "name": "characterHp",
          "type": "uint256[]"
        },
        {
          "internalType": "uint256[]",
          "name": "characterEnergy",
          "type": "uint256[]"
        },
        {
          "internalType": "uint256[]",
          "name": "characterAttackDamage",
          "type": "uint256[]"
        },
        {
          "internalType": "uint256[]",
          "name": "characterHpHealingFactor",
          "type": "uint256[]"
        },
        {
          "internalType": "string",
          "name": "bossName",
          "type": "string"
        },
        {
          "internalType": "string",
          "name": "bossImageURI",
          "type": "string"
        },
        {
          "internalType": "uint256",
          "name": "bossHp",
          "type": "uint256"
        },
        {
          "internalType": "uint256",
          "name": "bossEnergy",
          "type": "uint256"
        },
        {
          "internalType": "uint256",
          "name": "bossAttackDamage",
          "type": "uint256"
        }
      ],
      "stateMutability": "nonpayable",
      "type": "constructor"
    },
    {
      "anonymous": false,
      "inputs": [
        {
          "indexed": true,
          "internalType": "address",
          "name": "owner",
          "type": "address"
        },
        {
          "indexed": true,
          "internalType": "address",
          "name": "approved",
          "type": "address"
        },
        {
          "indexed": true,
          "internalType": "uint256",
          "name": "tokenId",
          "type": "uint256"
        }
      ],
      "name": "Approval",
      "type": "event"
    },
    {
      "anonymous": false,
      "inputs": [
        {
          "indexed": true,
          "internalType": "address",
          "name": "owner",
          "type": "address"
        },
        {
          "indexed": true,
          "internalType": "address",
          "name": "operator",
          "type": "address"
        },
        {
          "indexed": false,
          "internalType": "bool",
          "name": "approved",
          "type": "bool"
        }
      ],
      "name": "ApprovalForAll",
      "type": "event"
    },
    {
      "anonymous": false,
      "inputs": [
        {
          "indexed": false,
          "internalType": "address",
          "name": "sender",
          "type": "address"
        },
        {
          "indexed": false,
          "internalType": "uint256",
          "name": "newBossHp",
          "type": "uint256"
        },
        {
          "indexed": false,
          "internalType": "uint256",
          "name": "newPlayerHp",
          "type": "uint256"
        }
      ],
      "name": "AttackComplete",
      "type": "event"
    },
    {
      "anonymous": false,
      "inputs": [
        {
          "indexed": false,
          "internalType": "address",
          "name": "sender",
          "type": "address"
        },
        {
          "indexed": false,
          "internalType": "uint256",
          "name": "tokenId",
          "type": "uint256"
        },
        {
          "indexed": false,
          "internalType": "uint256",
          "name": "characterIndex",
          "type": "uint256"
        }
      ],
      "name": "CharacterNFTMinted",
      "type": "event"
    },
    {
      "anonymous": false,
      "inputs": [],
      "name": "CriticalHit",
      "type": "event"
    },
    {
      "anonymous": false,
      "inputs": [
        {
          "indexed": true,
          "internalType": "address",
          "name": "from",
          "type": "address"
        },
        {
          "indexed": true,
          "internalType": "address",
          "name": "to",
          "type": "address"
        },
        {
          "indexed": true,
          "internalType": "uint256",
          "name": "tokenId",
          "type": "uint256"
        }
      ],
      "name": "Transfer",
      "type": "event"
    },
    {
      "inputs": [
        {
          "internalType": "address",
          "name": "to",
          "type": "address"
        },
        {
          "internalType": "uint256",
          "name": "tokenId",
          "type": "uint256"
        }
      ],
      "name": "approve",
      "outputs": [],
      "stateMutability": "nonpayable",
      "type": "function"
    },
    {
      "inputs": [],
      "name": "attackBoss",
      "outputs": [],
      "stateMutability": "nonpayable",
      "type": "function"
    },
    {
      "inputs": [
        {
          "internalType": "address",
          "name": "owner",
          "type": "address"
        }
      ],
      "name": "balanceOf",
      "outputs": [
        {
          "internalType": "uint256",
          "name": "",
          "type": "uint256"
        }
      ],
      "stateMutability": "view",
      "type": "function"
    },
    {
      "inputs": [],
      "name": "bigBoss",
      "outputs": [
        {
          "internalType": "string",
          "name": "name",
          "type": "string"
        },
        {
          "internalType": "string",
          "name": "imageURI",
          "type": "string"
        },
        {
          "internalType": "uint256",
          "name": "hp",
          "type": "uint256"
        },
        {
          "internalType": "uint256",
          "name": "maxHp",
          "type": "uint256"
        },
        {
          "internalType": "uint256",
          "name": "energy",
          "type": "uint256"
        },
        {
          "internalType": "uint256",
          "name": "maxEnergy",
          "type": "uint256"
        },
        {
          "internalType": "uint256",
          "name": "attackDamage",
          "type": "uint256"
        }
      ],
      "stateMutability": "view",
      "type": "function"
    },
    {
      "inputs": [],
      "name": "checkIfUserHasNFT",
      "outputs": [
        {
          "components": [
            {
              "internalType": "uint256",
              "name": "characterIndex",
              "type": "uint256"
            },
            {
              "internalType": "string",
              "name": "name",
              "type": "string"
            },
            {
              "internalType": "string",
              "name": "imageURI",
              "type": "string"
            },
            {
              "internalType": "uint256",
              "name": "hp",
              "type": "uint256"
            },
            {
              "internalType": "uint256",
              "name": "maxHp",
              "type": "uint256"
            },
            {
              "internalType": "uint256",
              "name": "energy",
              "type": "uint256"
            },
            {
              "internalType": "uint256",
              "name": "maxEnergy",
              "type": "uint256"
            },
            {
              "internalType": "uint256",
              "name": "attackDamage",
              "type": "uint256"
            },
            {
              "internalType": "uint256",
              "name": "hpHealingFactor",
              "type": "uint256"
            }
          ],
          "internalType": "struct MyEpicGame.CharacterAttributes",
          "name": "",
          "type": "tuple"
        }
      ],
      "stateMutability": "view",
      "type": "function"
    },
    {
      "inputs": [],
      "name": "getAllDefaultCharacters",
      "outputs": [
        {
          "components": [
            {
              "internalType": "uint256",
              "name": "characterIndex",
              "type": "uint256"
            },
            {
              "internalType": "string",
              "name": "name",
              "type": "string"
            },
            {
              "internalType": "string",
              "name": "imageURI",
              "type": "string"
            },
            {
              "internalType": "uint256",
              "name": "hp",
              "type": "uint256"
            },
            {
              "internalType": "uint256",
              "name": "maxHp",
              "type": "uint256"
            },
            {
              "internalType": "uint256",
              "name": "energy",
              "type": "uint256"
            },
            {
              "internalType": "uint256",
              "name": "maxEnergy",
              "type": "uint256"
            },
            {
              "internalType": "uint256",
              "name": "attackDamage",
              "type": "uint256"
            },
            {
              "internalType": "uint256",
              "name": "hpHealingFactor",
              "type": "uint256"
            }
          ],
          "internalType": "struct MyEpicGame.CharacterAttributes[]",
          "name": "",
          "type": "tuple[]"
        }
      ],
      "stateMutability": "view",
      "type": "function"
    },
    {
      "inputs": [],
      "name": "getAllPlayers",
      "outputs": [
        {
          "internalType": "address[]",
          "name": "",
          "type": "address[]"
        }
      ],
      "stateMutability": "view",
      "type": "function"
    },
    {
      "inputs": [
        {
          "internalType": "uint256",
          "name": "tokenId",
          "type": "uint256"
        }
      ],
      "name": "getApproved",
      "outputs": [
        {
          "internalType": "address",
          "name": "",
          "type": "address"
        }
      ],
      "stateMutability": "view",
      "type": "function"
    },
    {
      "inputs": [],
      "name": "getBigBoss",
      "outputs": [
        {
          "components": [
            {
              "internalType": "string",
              "name": "name",
              "type": "string"
            },
            {
              "internalType": "string",
              "name": "imageURI",
              "type": "string"
            },
            {
              "internalType": "uint256",
              "name": "hp",
              "type": "uint256"
            },
            {
              "internalType": "uint256",
              "name": "maxHp",
              "type": "uint256"
            },
            {
              "internalType": "uint256",
              "name": "energy",
              "type": "uint256"
            },
            {
              "internalType": "uint256",
              "name": "maxEnergy",
              "type": "uint256"
            },
            {
              "internalType": "uint256",
              "name": "attackDamage",
              "type": "uint256"
            }
          ],
          "internalType": "struct MyEpicGame.BigBoss",
          "name": "",
          "type": "tuple"
        }
      ],
      "stateMutability": "view",
      "type": "function"
    },
    {
      "inputs": [
        {
          "internalType": "address",
          "name": "owner",
          "type": "address"
        },
        {
          "internalType": "address",
          "name": "operator",
          "type": "address"
        }
      ],
      "name": "isApprovedForAll",
      "outputs": [
        {
          "internalType": "bool",
          "name": "",
          "type": "bool"
        }
      ],
      "stateMutability": "view",
      "type": "function"
    },
    {
      "inputs": [
        {
          "internalType": "uint256",
          "name": "_characterIndex",
          "type": "uint256"
        }
      ],
      "name": "mintCharacterNFT",
      "outputs": [],
      "stateMutability": "nonpayable",
      "type": "function"
    },
    {
      "inputs": [],
      "name": "name",
      "outputs": [
        {
          "internalType": "string",
          "name": "",
          "type": "string"
        }
      ],
      "stateMutability": "view",
      "type": "function"
    },
    {
      "inputs": [
        {
          "internalType": "uint256",
          "name": "",
          "type": "uint256"
        }
      ],
      "name": "nftHolderAttributes",
      "outputs": [
        {
          "internalType": "uint256",
          "name": "characterIndex",
          "type": "uint256"
        },
        {
          "internalType": "string",
          "name": "name",
          "type": "string"
        },
        {
          "internalType": "string",
          "name": "imageURI",
          "type": "string"
        },
        {
          "internalType": "uint256",
          "name": "hp",
          "type": "uint256"
        },
        {
          "internalType": "uint256",
          "name": "maxHp",
          "type": "uint256"
        },
        {
          "internalType": "uint256",
          "name": "energy",
          "type": "uint256"
        },
        {
          "internalType": "uint256",
          "name": "maxEnergy",
          "type": "uint256"
        },
        {
          "internalType": "uint256",
          "name": "attackDamage",
          "type": "uint256"
        },
        {
          "internalType": "uint256",
          "name": "hpHealingFactor",
          "type": "uint256"
        }
      ],
      "stateMutability": "view",
      "type": "function"
    },
    {
      "inputs": [
        {
          "internalType": "address",
          "name": "",
          "type": "address"
        }
      ],
      "name": "nftHolders",
      "outputs": [
        {
          "internalType": "uint256",
          "name": "",
          "type": "uint256"
        }
      ],
      "stateMutability": "view",
      "type": "function"
    },
    {
      "inputs": [
        {
          "internalType": "uint256",
          "name": "tokenId",
          "type": "uint256"
        }
      ],
      "name": "ownerOf",
      "outputs": [
        {
          "internalType": "address",
          "name": "",
          "type": "address"
        }
      ],
      "stateMutability": "view",
      "type": "function"
    },
    {
      "inputs": [
        {
          "internalType": "address",
          "name": "from",
          "type": "address"
        },
        {
          "internalType": "address",
          "name": "to",
          "type": "address"
        },
        {
          "internalType": "uint256",
          "name": "tokenId",
          "type": "uint256"
        }
      ],
      "name": "safeTransferFrom",
      "outputs": [],
      "stateMutability": "nonpayable",
      "type": "function"
    },
    {
      "inputs": [
        {
          "internalType": "address",
          "name": "from",
          "type": "address"
        },
        {
          "internalType": "address",
          "name": "to",
          "type": "address"
        },
        {
          "internalType": "uint256",
          "name": "tokenId",
          "type": "uint256"
        },
        {
          "internalType": "bytes",
          "name": "_data",
          "type": "bytes"
        }
      ],
      "name": "safeTransferFrom",
      "outputs": [],
      "stateMutability": "nonpayable",
      "type": "function"
    },
    {
      "inputs": [
        {
          "internalType": "address",
          "name": "operator",
          "type": "address"
        },
        {
          "internalType": "bool",
          "name": "approved",
          "type": "bool"
        }
      ],
      "name": "setApprovalForAll",
      "outputs": [],
      "stateMutability": "nonpayable",
      "type": "function"
    },
    {
      "inputs": [
        {
          "internalType": "bytes4",
          "name": "interfaceId",
          "type": "bytes4"
        }
      ],
      "name": "supportsInterface",
      "outputs": [
        {
          "internalType": "bool",
          "name": "",
          "type": "bool"
        }
      ],
      "stateMutability": "view",
      "type": "function"
    },
    {
      "inputs": [],
      "name": "symbol",
      "outputs": [
        {
          "internalType": "string",
          "name": "",
          "type": "string"
        }
      ],
      "stateMutability": "view",
      "type": "function"
    },
    {
      "inputs": [
        {
          "internalType": "uint256",
          "name": "_tokenId",
          "type": "uint256"
        }
      ],
      "name": "tokenURI",
      "outputs": [
        {
          "internalType": "string",
          "name": "",
          "type": "string"
        }
      ],
      "stateMutability": "view",
      "type": "function"
    },
    {
      "inputs": [
        {
          "internalType": "address",
          "name": "from",
          "type": "address"
        },
        {
          "internalType": "address",
          "name": "to",
          "type": "address"
        },
        {
          "internalType": "uint256",
          "name": "tokenId",
          "type": "uint256"
        }
      ],
      "name": "transferFrom",
      "outputs": [],
      "stateMutability": "nonpayable",
      "type": "function"
    }
  ],
  "bytecode": "0x60806040523480156200001157600080fd5b506040516200605d3803806200605d833981810160405281019062000037919062000b3d565b6040518060400160405280600881526020017f57617272696f72730000000000000000000000000000000000000000000000008152506040518060400160405280600481526020017f4865726f000000000000000000000000000000000000000000000000000000008152508160009080519060200190620000bb929190620008d0565b508060019080519060200190620000d4929190620008d0565b50505060644442620000e7919062000eed565b620000f3919062000ff6565b600e8190555060005b8b518110156200066857600f6040518061012001604052808381526020018e848151811062000154577f4e487b7100000000000000000000000000000000000000000000000000000000600052603260045260246000fd5b602002602001015181526020018d84815181106200019b577f4e487b7100000000000000000000000000000000000000000000000000000000600052603260045260246000fd5b602002602001015181526020018c8481518110620001e2577f4e487b7100000000000000000000000000000000000000000000000000000000600052603260045260246000fd5b602002602001015181526020018c848151811062000229577f4e487b7100000000000000000000000000000000000000000000000000000000600052603260045260246000fd5b602002602001015181526020018b848151811062000270577f4e487b7100000000000000000000000000000000000000000000000000000000600052603260045260246000fd5b602002602001015181526020018b8481518110620002b7577f4e487b7100000000000000000000000000000000000000000000000000000000600052603260045260246000fd5b602002602001015181526020018a8481518110620002fe577f4e487b7100000000000000000000000000000000000000000000000000000000600052603260045260246000fd5b6020026020010151815260200189848151811062000345577f4e487b7100000000000000000000000000000000000000000000000000000000600052603260045260246000fd5b60200260200101518152509080600181540180825580915050600190039060005260206000209060090201600090919091909150600082015181600001556020820151816001019080519060200190620003a1929190620008d0565b506040820151816002019080519060200190620003c0929190620008d0565b50606082015181600301556080820151816004015560a0820151816005015560c0820151816006015560e08201518160070155610100820151816008015550506000600f82815481106200043d577f4e487b7100000000000000000000000000000000000000000000000000000000600052603260045260246000fd5b90600052602060002090600902016040518061012001604052908160008201548152602001600182018054620004739062000f8a565b80601f0160208091040260200160405190810160405280929190818152602001828054620004a19062000f8a565b8015620004f25780601f10620004c657610100808354040283529160200191620004f2565b820191906000526020600020905b815481529060010190602001808311620004d457829003601f168201915b505050505081526020016002820180546200050d9062000f8a565b80601f01602080910402602001604051908101604052809291908181526020018280546200053b9062000f8a565b80156200058c5780601f1062000560576101008083540402835291602001916200058c565b820191906000526020600020905b8154815290600101906020018083116200056e57829003601f168201915b50505050508152602001600382015481526020016004820154815260200160058201548152602001600682015481526020016007820154815260200160088201548152505090506200061160405180606001604052806025815260200162006005602591398260200151836060015184604001516200073960201b62001efe1760201c565b620006506040518060600160405280603381526020016200602a603391398260a001518360e00151846101000151620007e560201b62001fa01760201c565b5060018162000660919062000eed565b9050620000fc565b506040518060e001604052808681526020018581526020018481526020018481526020018381526020018381526020018281525060066000820151816000019080519060200190620006bc929190620008d0565b506020820151816001019080519060200190620006db929190620008d0565b5060408201518160020155606082015181600301556080820151816004015560a0820151816005015560c0820151816006015590505062000728600d6200089160201b620020421760201c565b505050505050505050505062001115565b620007df8484848460405160240162000756949392919062000d5e565b6040516020818303038152906040527f8d142cdd000000000000000000000000000000000000000000000000000000007bffffffffffffffffffffffffffffffffffffffffffffffffffffffff19166020820180517bffffffffffffffffffffffffffffffffffffffffffffffffffffffff8381831617835250505050620008a760201b60201c565b50505050565b6200088b8484848460405160240162000802949392919062000dc0565b6040516020818303038152906040527f08ee5666000000000000000000000000000000000000000000000000000000007bffffffffffffffffffffffffffffffffffffffffffffffffffffffff19166020820180517bffffffffffffffffffffffffffffffffffffffffffffffffffffffff8381831617835250505050620008a760201b60201c565b50505050565b6001816000016000828254019250508190555050565b60008151905060006a636f6e736f6c652e6c6f679050602083016000808483855afa5050505050565b828054620008de9062000f8a565b90600052602060002090601f0160209004810192826200090257600085556200094e565b82601f106200091d57805160ff19168380011785556200094e565b828001600101855582156200094e579182015b828111156200094d57825182559160200191906001019062000930565b5b5090506200095d919062000961565b5090565b5b808211156200097c57600081600090555060010162000962565b5090565b600062000997620009918462000e3d565b62000e14565b9050808382526020820190508260005b85811015620009db5781518501620009c0888262000af9565b845260208401935060208301925050600181019050620009a7565b5050509392505050565b6000620009fc620009f68462000e6c565b62000e14565b9050808382526020820190508285602086028201111562000a1c57600080fd5b60005b8581101562000a50578162000a35888262000b26565b84526020840193506020830192505060018101905062000a1f565b5050509392505050565b600062000a7162000a6b8462000e9b565b62000e14565b90508281526020810184848401111562000a8a57600080fd5b62000a9784828562000f54565b509392505050565b600082601f83011262000ab157600080fd5b815162000ac384826020860162000980565b91505092915050565b600082601f83011262000ade57600080fd5b815162000af0848260208601620009e5565b91505092915050565b600082601f83011262000b0b57600080fd5b815162000b1d84826020860162000a5a565b91505092915050565b60008151905062000b3781620010fb565b92915050565b60008060008060008060008060008060006101608c8e03121562000b6057600080fd5b60008c015167ffffffffffffffff81111562000b7b57600080fd5b62000b898e828f0162000a9f565b9b505060208c015167ffffffffffffffff81111562000ba757600080fd5b62000bb58e828f0162000a9f565b9a505060408c015167ffffffffffffffff81111562000bd357600080fd5b62000be18e828f0162000acc565b99505060608c015167ffffffffffffffff81111562000bff57600080fd5b62000c0d8e828f0162000acc565b98505060808c015167ffffffffffffffff81111562000c2b57600080fd5b62000c398e828f0162000acc565b97505060a08c015167ffffffffffffffff81111562000c5757600080fd5b62000c658e828f0162000acc565b96505060c08c015167ffffffffffffffff81111562000c8357600080fd5b62000c918e828f0162000af9565b95505060e08c015167ffffffffffffffff81111562000caf57600080fd5b62000cbd8e828f0162000af9565b94505061010062000cd18e828f0162000b26565b93505061012062000ce58e828f0162000b26565b92505061014062000cf98e828f0162000b26565b9150509295989b509295989b9093969950565b600062000d198262000ed1565b62000d25818562000edc565b935062000d3781856020860162000f54565b62000d4281620010ea565b840191505092915050565b62000d588162000f4a565b82525050565b6000608082019050818103600083015262000d7a818762000d0c565b9050818103602083015262000d90818662000d0c565b905062000da1604083018562000d4d565b818103606083015262000db5818462000d0c565b905095945050505050565b6000608082019050818103600083015262000ddc818762000d0c565b905062000ded602083018662000d4d565b62000dfc604083018562000d4d565b62000e0b606083018462000d4d565b95945050505050565b600062000e2062000e33565b905062000e2e828262000fc0565b919050565b6000604051905090565b600067ffffffffffffffff82111562000e5b5762000e5a620010bb565b5b602082029050602081019050919050565b600067ffffffffffffffff82111562000e8a5762000e89620010bb565b5b602082029050602081019050919050565b600067ffffffffffffffff82111562000eb95762000eb8620010bb565b5b62000ec482620010ea565b9050602081019050919050565b600081519050919050565b600082825260208201905092915050565b600062000efa8262000f4a565b915062000f078362000f4a565b9250827fffffffffffffffffffffffffffffffffffffffffffffffffffffffffffffffff0382111562000f3f5762000f3e6200102e565b5b828201905092915050565b6000819050919050565b60005b8381101562000f7457808201518184015260208101905062000f57565b8381111562000f84576000848401525b50505050565b6000600282049050600182168062000fa357607f821691505b6020821081141562000fba5762000fb96200108c565b5b50919050565b62000fcb82620010ea565b810181811067ffffffffffffffff8211171562000fed5762000fec620010bb565b5b80604052505050565b6000620010038262000f4a565b9150620010108362000f4a565b9250826200102357620010226200105d565b5b828206905092915050565b7f4e487b7100000000000000000000000000000000000000000000000000000000600052601160045260246000fd5b7f4e487b7100000000000000000000000000000000000000000000000000000000600052601260045260246000fd5b7f4e487b7100000000000000000000000000000000000000000000000000000000600052602260045260246000fd5b7f4e487b7100000000000000000000000000000000000000000000000000000000600052604160045260246000fd5b6000601f19601f8301169050919050565b620011068162000f4a565b81146200111257600080fd5b50565b614ee080620011256000396000f3fe608060405234801561001057600080fd5b50600436106101425760003560e01c806398da4c95116100b8578063c87b56dd1161007c578063c87b56dd14610397578063c8cf27f4146103c7578063d4f24c5b146103e5578063e985e9c5146103ef578063efa1c4821461041f578063f8b81ef71461043d57610142565b806398da4c95146102e5578063a22cb4651461031d578063a9c3267914610339578063b88d4fde1461035d578063b953084e1461037957610142565b806323b872dd1161010a57806323b872dd146101ff57806342842e0e1461021b5780636352211e1461023757806370a08231146102675780637df124a11461029757806395d89b41146102c757610142565b806301ffc9a7146101475780630665f9611461017757806306fdde0314610195578063081812fc146101b3578063095ea7b3146101e3575b600080fd5b610161600480360381019061015c9190613437565b610459565b60405161016e9190613de1565b60405180910390f35b61017f61053b565b60405161018c91906141e2565b60405180910390f35b61019d6106ab565b6040516101aa9190613dfc565b60405180910390f35b6101cd60048036038101906101c89190613489565b61073d565b6040516101da9190613cff565b60405180910390f35b6101fd60048036038101906101f891906133fb565b6107c2565b005b610219600480360381019061021491906132f5565b6108da565b005b610235600480360381019061023091906132f5565b61093a565b005b610251600480360381019061024c9190613489565b61095a565b60405161025e9190613cff565b60405180910390f35b610281600480360381019061027c9190613290565b610a0c565b60405161028e9190614226565b60405180910390f35b6102b160048036038101906102ac9190613290565b610ac4565b6040516102be9190614226565b60405180910390f35b6102cf610adc565b6040516102dc9190613dfc565b60405180910390f35b6102ff60048036038101906102fa9190613489565b610b6e565b60405161031499989796959493929190614241565b60405180910390f35b610337600480360381019061033291906133bf565b610ccc565b005b610341610ce2565b6040516103549796959493929190613ecb565b60405180910390f35b61037760048036038101906103729190613344565b610e22565b005b610381610e84565b60405161038e9190613dbf565b60405180910390f35b6103b160048036038101906103ac9190613489565b61104e565b6040516103be9190613dfc565b60405180910390f35b6103cf611288565b6040516103dc9190614204565b60405180910390f35b6103ed611485565b005b610409600480360381019061040491906132b9565b611872565b6040516104169190613de1565b60405180910390f35b610427611906565b6040516104349190613d9d565b60405180910390f35b61045760048036038101906104529190613489565b611994565b005b60007f80ac58cd000000000000000000000000000000000000000000000000000000007bffffffffffffffffffffffffffffffffffffffffffffffffffffffff1916827bffffffffffffffffffffffffffffffffffffffffffffffffffffffff1916148061052457507f5b5e139f000000000000000000000000000000000000000000000000000000007bffffffffffffffffffffffffffffffffffffffffffffffffffffffff1916827bffffffffffffffffffffffffffffffffffffffffffffffffffffffff1916145b80610534575061053382612058565b5b9050919050565b610543613093565b60066040518060e0016040529081600082018054610560906145c3565b80601f016020809104026020016040519081016040528092919081815260200182805461058c906145c3565b80156105d95780601f106105ae576101008083540402835291602001916105d9565b820191906000526020600020905b8154815290600101906020018083116105bc57829003601f168201915b505050505081526020016001820180546105f2906145c3565b80601f016020809104026020016040519081016040528092919081815260200182805461061e906145c3565b801561066b5780601f106106405761010080835404028352916020019161066b565b820191906000526020600020905b81548152906001019060200180831161064e57829003601f168201915b5050505050815260200160028201548152602001600382015481526020016004820154815260200160058201548152602001600682015481525050905090565b6060600080546106ba906145c3565b80601f01602080910402602001604051908101604052809291908181526020018280546106e6906145c3565b80156107335780601f1061070857610100808354040283529160200191610733565b820191906000526020600020905b81548152906001019060200180831161071657829003601f168201915b5050505050905090565b6000610748826120c2565b610787576040517f08c379a000000000000000000000000000000000000000000000000000000000815260040161077e90614162565b60405180910390fd5b6004600083815260200190815260200160002060009054906101000a900473ffffffffffffffffffffffffffffffffffffffff169050919050565b60006107cd8261095a565b90508073ffffffffffffffffffffffffffffffffffffffff168373ffffffffffffffffffffffffffffffffffffffff16141561083e576040517f08c379a000000000000000000000000000000000000000000000000000000000815260040161083590614182565b60405180910390fd5b8073ffffffffffffffffffffffffffffffffffffffff1661085d61212e565b73ffffffffffffffffffffffffffffffffffffffff16148061088c575061088b8161088661212e565b611872565b5b6108cb576040517f08c379a00000000000000000000000000000000000000000000000000000000081526004016108c2906140e2565b60405180910390fd5b6108d58383612136565b505050565b6108eb6108e561212e565b826121ef565b61092a576040517f08c379a0000000000000000000000000000000000000000000000000000000008152600401610921906141c2565b60405180910390fd5b6109358383836122cd565b505050565b61095583838360405180602001604052806000815250610e22565b505050565b6000806002600084815260200190815260200160002060009054906101000a900473ffffffffffffffffffffffffffffffffffffffff169050600073ffffffffffffffffffffffffffffffffffffffff168173ffffffffffffffffffffffffffffffffffffffff161415610a03576040517f08c379a00000000000000000000000000000000000000000000000000000000081526004016109fa90614122565b60405180910390fd5b80915050919050565b60008073ffffffffffffffffffffffffffffffffffffffff168273ffffffffffffffffffffffffffffffffffffffff161415610a7d576040517f08c379a0000000000000000000000000000000000000000000000000000000008152600401610a7490614102565b60405180910390fd5b600360008373ffffffffffffffffffffffffffffffffffffffff1673ffffffffffffffffffffffffffffffffffffffff168152602001908152602001600020549050919050565b60116020528060005260406000206000915090505481565b606060018054610aeb906145c3565b80601f0160208091040260200160405190810160405280929190818152602001828054610b17906145c3565b8015610b645780601f10610b3957610100808354040283529160200191610b64565b820191906000526020600020905b815481529060010190602001808311610b4757829003601f168201915b5050505050905090565b6010602052806000526040600020600091509050806000015490806001018054610b97906145c3565b80601f0160208091040260200160405190810160405280929190818152602001828054610bc3906145c3565b8015610c105780601f10610be557610100808354040283529160200191610c10565b820191906000526020600020905b815481529060010190602001808311610bf357829003601f168201915b505050505090806002018054610c25906145c3565b80601f0160208091040260200160405190810160405280929190818152602001828054610c51906145c3565b8015610c9e5780601f10610c7357610100808354040283529160200191610c9e565b820191906000526020600020905b815481529060010190602001808311610c8157829003601f168201915b5050505050908060030154908060040154908060050154908060060154908060070154908060080154905089565b610cde610cd761212e565b8383612534565b5050565b6006806000018054610cf3906145c3565b80601f0160208091040260200160405190810160405280929190818152602001828054610d1f906145c3565b8015610d6c5780601f10610d4157610100808354040283529160200191610d6c565b820191906000526020600020905b815481529060010190602001808311610d4f57829003601f168201915b505050505090806001018054610d81906145c3565b80601f0160208091040260200160405190810160405280929190818152602001828054610dad906145c3565b8015610dfa5780601f10610dcf57610100808354040283529160200191610dfa565b820191906000526020600020905b815481529060010190602001808311610ddd57829003601f168201915b5050505050908060020154908060030154908060040154908060050154908060060154905087565b610e33610e2d61212e565b836121ef565b610e72576040517f08c379a0000000000000000000000000000000000000000000000000000000008152600401610e69906141c2565b60405180910390fd5b610e7e848484846126a1565b50505050565b6060600f805480602002602001604051908101604052809291908181526020016000905b8282101561104557838290600052602060002090600902016040518061012001604052908160008201548152602001600182018054610ee6906145c3565b80601f0160208091040260200160405190810160405280929190818152602001828054610f12906145c3565b8015610f5f5780601f10610f3457610100808354040283529160200191610f5f565b820191906000526020600020905b815481529060010190602001808311610f4257829003601f168201915b50505050508152602001600282018054610f78906145c3565b80601f0160208091040260200160405190810160405280929190818152602001828054610fa4906145c3565b8015610ff15780601f10610fc657610100808354040283529160200191610ff1565b820191906000526020600020905b815481529060010190602001808311610fd457829003601f168201915b50505050508152602001600382015481526020016004820154815260200160058201548152602001600682015481526020016007820154815260200160088201548152505081526020019060010190610ea8565b50505050905090565b6060600060106000848152602001908152602001600020604051806101200160405290816000820154815260200160018201805461108b906145c3565b80601f01602080910402602001604051908101604052809291908181526020018280546110b7906145c3565b80156111045780601f106110d957610100808354040283529160200191611104565b820191906000526020600020905b8154815290600101906020018083116110e757829003601f168201915b5050505050815260200160028201805461111d906145c3565b80601f0160208091040260200160405190810160405280929190818152602001828054611149906145c3565b80156111965780601f1061116b57610100808354040283529160200191611196565b820191906000526020600020905b81548152906001019060200180831161117957829003601f168201915b505050505081526020016003820154815260200160048201548152602001600582015481526020016006820154815260200160078201548152602001600882015481525050905060006111ec82606001516126fd565b905060006111fd83608001516126fd565b9050600061120e8460a001516126fd565b905060006112548560200151611223896126fd565b876040015187878760405160200161124096959493929190613c38565b6040516020818303038152906040526128aa565b90506000816040516020016112699190613cdd565b6040516020818303038152906040529050809650505050505050919050565b6112906130d0565b6000601160003373ffffffffffffffffffffffffffffffffffffffff1673ffffffffffffffffffffffffffffffffffffffff1681526020019081526020016000205490506000811115611474576000601060008381526020019081526020016000206040518061012001604052908160008201548152602001600182018054611318906145c3565b80601f0160208091040260200160405190810160405280929190818152602001828054611344906145c3565b80156113915780601f1061136657610100808354040283529160200191611391565b820191906000526020600020905b81548152906001019060200180831161137457829003601f168201915b505050505081526020016002820180546113aa906145c3565b80601f01602080910402602001604051908101604052809291908181526020018280546113d6906145c3565b80156114235780601f106113f857610100808354040283529160200191611423565b820191906000526020600020905b81548152906001019060200180831161140657829003601f168201915b50505050508152602001600382015481526020016004820154815260200160058201548152602001600682015481526020016007820154815260200160088201548152505090508092505050611482565b61147c6130d0565b80925050505b90565b6000601160003373ffffffffffffffffffffffffffffffffffffffff1673ffffffffffffffffffffffffffffffffffffffff16815260200190815260200160002054905060006010600083815260200190815260200160002090506115986040518060600160405280603d8152602001614dd8603d913982600101805461150b906145c3565b80601f0160208091040260200160405190810160405280929190818152602001828054611537906145c3565b80156115845780601f1061155957610100808354040283529160200191611584565b820191906000526020600020905b81548152906001019060200180831161156757829003601f168201915b505050505083600301548460070154612a68565b61166f6040518060400160405280601d81526020017f0a426f7373202573206861732025732048502c20616e64202573204144000000815250600660000180546115e1906145c3565b80601f016020809104026020016040519081016040528092919081815260200182805461160d906145c3565b801561165a5780601f1061162f5761010080835404028352916020019161165a565b820191906000526020600020905b81548152906001019060200180831161163d57829003601f168201915b50505050506006600201546006800154612a68565b60008160030154116116b6576040517f08c379a00000000000000000000000000000000000000000000000000000000081526004016116ad90614062565b60405180910390fd5b6000600660020154116116fe576040517f08c379a00000000000000000000000000000000000000000000000000000000081526004016116f5906141a2565b60405180910390fd5b8060070154600660020154101561171f576000600660020181905550611776565b6014600e54101561177557806007015460066002015461173f91906144d9565b6006600201819055507fb9351c593ca16bfe49ab9b34f38737b942cc7fafc6716896152177666bc154bd60405160405180910390a15b5b60068001548160030154101561179557600081600301819055506117b2565b600680015481600301546117a991906144d9565b81600301819055505b6064600e5442446117c391906143f8565b6117cd91906143f8565b6117d7919061466f565b600e81905550611804604051806060016040528060258152602001614db360259139600660020154612b0a565b61182a604051806060016040528060288152602001614e55602891398260030154612b0a565b7f32bd565ee3f2cb5ddd742bbecd6048d3e9abe90b3827a40c2b72d232e71e3c9d33600660020154836003015460405161186693929190613d66565b60405180910390a15050565b6000600560008473ffffffffffffffffffffffffffffffffffffffff1673ffffffffffffffffffffffffffffffffffffffff16815260200190815260200160002060008373ffffffffffffffffffffffffffffffffffffffff1673ffffffffffffffffffffffffffffffffffffffff16815260200190815260200160002060009054906101000a900460ff16905092915050565b6060601280548060200260200160405190810160405280929190818152602001828054801561198a57602002820191906000526020600020905b8160009054906101000a900473ffffffffffffffffffffffffffffffffffffffff1673ffffffffffffffffffffffffffffffffffffffff1681526020019060010190808311611940575b5050505050905090565b60006119a0600d612ba6565b90506119ac3382612bb4565b604051806101200160405280838152602001600f84815481106119f8577f4e487b7100000000000000000000000000000000000000000000000000000000600052603260045260246000fd5b90600052602060002090600902016001018054611a14906145c3565b80601f0160208091040260200160405190810160405280929190818152602001828054611a40906145c3565b8015611a8d5780601f10611a6257610100808354040283529160200191611a8d565b820191906000526020600020905b815481529060010190602001808311611a7057829003601f168201915b50505050508152602001600f8481548110611ad1577f4e487b7100000000000000000000000000000000000000000000000000000000600052603260045260246000fd5b90600052602060002090600902016002018054611aed906145c3565b80601f0160208091040260200160405190810160405280929190818152602001828054611b19906145c3565b8015611b665780601f10611b3b57610100808354040283529160200191611b66565b820191906000526020600020905b815481529060010190602001808311611b4957829003601f168201915b50505050508152602001600f8481548110611baa577f4e487b7100000000000000000000000000000000000000000000000000000000600052603260045260246000fd5b9060005260206000209060090201600301548152602001600f8481548110611bfb577f4e487b7100000000000000000000000000000000000000000000000000000000600052603260045260246000fd5b9060005260206000209060090201600401548152602001600f8481548110611c4c577f4e487b7100000000000000000000000000000000000000000000000000000000600052603260045260246000fd5b9060005260206000209060090201600501548152602001600f8481548110611c9d577f4e487b7100000000000000000000000000000000000000000000000000000000600052603260045260246000fd5b9060005260206000209060090201600601548152602001600f8481548110611cee577f4e487b7100000000000000000000000000000000000000000000000000000000600052603260045260246000fd5b9060005260206000209060090201600701548152602001600f8481548110611d3f577f4e487b7100000000000000000000000000000000000000000000000000000000600052603260045260246000fd5b90600052602060002090600902016008015481525060106000838152602001908152602001600020600082015181600001556020820151816001019080519060200190611d8d92919061311c565b506040820151816002019080519060200190611daa92919061311c565b50606082015181600301556080820151816004015560a0820151816005015560c0820151816006015560e082015181600701556101008201518160080155905050611e0e6040518060600160405280602e8152602001614e7d602e91398284612bd2565b80601160003373ffffffffffffffffffffffffffffffffffffffff1673ffffffffffffffffffffffffffffffffffffffff168152602001908152602001600020819055506012339080600181540180825580915050600190039060005260206000200160009091909190916101000a81548173ffffffffffffffffffffffffffffffffffffffff021916908373ffffffffffffffffffffffffffffffffffffffff160217905550611ebf600d612042565b7f4bc303fd457a97b4691b9af582ce71868a3d258638c8d4f8c60988a0f0bfb8cd338284604051611ef293929190613d66565b60405180910390a15050565b611f9a84848484604051602401611f189493929190613e1e565b6040516020818303038152906040527f8d142cdd000000000000000000000000000000000000000000000000000000007bffffffffffffffffffffffffffffffffffffffffffffffffffffffff19166020820180517bffffffffffffffffffffffffffffffffffffffffffffffffffffffff8381831617835250505050612c71565b50505050565b61203c84848484604051602401611fba9493929190613fb6565b6040516020818303038152906040527f08ee5666000000000000000000000000000000000000000000000000000000007bffffffffffffffffffffffffffffffffffffffffffffffffffffffff19166020820180517bffffffffffffffffffffffffffffffffffffffffffffffffffffffff8381831617835250505050612c71565b50505050565b6001816000016000828254019250508190555050565b60007f01ffc9a7000000000000000000000000000000000000000000000000000000007bffffffffffffffffffffffffffffffffffffffffffffffffffffffff1916827bffffffffffffffffffffffffffffffffffffffffffffffffffffffff1916149050919050565b60008073ffffffffffffffffffffffffffffffffffffffff166002600084815260200190815260200160002060009054906101000a900473ffffffffffffffffffffffffffffffffffffffff1673ffffffffffffffffffffffffffffffffffffffff1614159050919050565b600033905090565b816004600083815260200190815260200160002060006101000a81548173ffffffffffffffffffffffffffffffffffffffff021916908373ffffffffffffffffffffffffffffffffffffffff160217905550808273ffffffffffffffffffffffffffffffffffffffff166121a98361095a565b73ffffffffffffffffffffffffffffffffffffffff167f8c5be1e5ebec7d5bd14f71427d1e84f3dd0314c0f7b2291e5b200ac8c7c3b92560405160405180910390a45050565b60006121fa826120c2565b612239576040517f08c379a0000000000000000000000000000000000000000000000000000000008152600401612230906140c2565b60405180910390fd5b60006122448361095a565b90508073ffffffffffffffffffffffffffffffffffffffff168473ffffffffffffffffffffffffffffffffffffffff16148061228657506122858185611872565b5b806122c457508373ffffffffffffffffffffffffffffffffffffffff166122ac8461073d565b73ffffffffffffffffffffffffffffffffffffffff16145b91505092915050565b8273ffffffffffffffffffffffffffffffffffffffff166122ed8261095a565b73ffffffffffffffffffffffffffffffffffffffff1614612343576040517f08c379a000000000000000000000000000000000000000000000000000000000815260040161233a90614022565b60405180910390fd5b600073ffffffffffffffffffffffffffffffffffffffff168273ffffffffffffffffffffffffffffffffffffffff1614156123b3576040517f08c379a00000000000000000000000000000000000000000000000000000000081526004016123aa90614082565b60405180910390fd5b6123be838383612c9a565b6123c9600082612136565b6001600360008573ffffffffffffffffffffffffffffffffffffffff1673ffffffffffffffffffffffffffffffffffffffff168152602001908152602001600020600082825461241991906144d9565b925050819055506001600360008473ffffffffffffffffffffffffffffffffffffffff1673ffffffffffffffffffffffffffffffffffffffff168152602001908152602001600020600082825461247091906143f8565b92505081905550816002600083815260200190815260200160002060006101000a81548173ffffffffffffffffffffffffffffffffffffffff021916908373ffffffffffffffffffffffffffffffffffffffff160217905550808273ffffffffffffffffffffffffffffffffffffffff168473ffffffffffffffffffffffffffffffffffffffff167fddf252ad1be2c89b69c2b068fc378daa952ba7f163c4a11628f55a4df523b3ef60405160405180910390a461252f838383612c9f565b505050565b8173ffffffffffffffffffffffffffffffffffffffff168373ffffffffffffffffffffffffffffffffffffffff1614156125a3576040517f08c379a000000000000000000000000000000000000000000000000000000000815260040161259a906140a2565b60405180910390fd5b80600560008573ffffffffffffffffffffffffffffffffffffffff1673ffffffffffffffffffffffffffffffffffffffff16815260200190815260200160002060008473ffffffffffffffffffffffffffffffffffffffff1673ffffffffffffffffffffffffffffffffffffffff16815260200190815260200160002060006101000a81548160ff0219169083151502179055508173ffffffffffffffffffffffffffffffffffffffff168373ffffffffffffffffffffffffffffffffffffffff167f17307eab39ab6107e8899845ad3d59bd9653f200f220920489ca2b5937696c31836040516126949190613de1565b60405180910390a3505050565b6126ac8484846122cd565b6126b884848484612ca4565b6126f7576040517f08c379a00000000000000000000000000000000000000000000000000000000081526004016126ee90614002565b60405180910390fd5b50505050565b60606000821415612745576040518060400160405280600181526020017f300000000000000000000000000000000000000000000000000000000000000081525090506128a5565b600082905060005b6000821461277757808061276090614626565b915050600a82612770919061444e565b915061274d565b60008167ffffffffffffffff8111156127b9577f4e487b7100000000000000000000000000000000000000000000000000000000600052604160045260246000fd5b6040519080825280601f01601f1916602001820160405280156127eb5781602001600182028036833780820191505090505b5090505b6000851461289e5760018261280491906144d9565b9150600a85612813919061466f565b603061281f91906143f8565b60f81b81838151811061285b577f4e487b7100000000000000000000000000000000000000000000000000000000600052603260045260246000fd5b60200101907effffffffffffffffffffffffffffffffffffffffffffffffffffffffffffff1916908160001a905350600a85612897919061444e565b94506127ef565b8093505050505b919050565b606060008251905060008114156128d35760405180602001604052806000815250915050612a63565b600060036002836128e491906143f8565b6128ee919061444e565b60046128fa919061447f565b9050600060208261290b91906143f8565b67ffffffffffffffff81111561294a577f4e487b7100000000000000000000000000000000000000000000000000000000600052604160045260246000fd5b6040519080825280601f01601f19166020018201604052801561297c5781602001600182028036833780820191505090505b5090506000604051806060016040528060408152602001614e15604091399050600181016020830160005b86811015612a205760038101905062ffffff818a015116603f8160121c168401518060081b905060ff603f83600c1c1686015116810190508060081b905060ff603f8360061c1686015116810190508060081b905060ff603f831686015116810190508060e01b905080845260048401935050506129a7565b506003860660018114612a3a5760028114612a4a57612a55565b613d3d60f01b6002830352612a55565b603d60f81b60018303525b508484525050819450505050505b919050565b612b0484848484604051602401612a829493929190613e78565b6040516020818303038152906040527fd5cf17d0000000000000000000000000000000000000000000000000000000007bffffffffffffffffffffffffffffffffffffffffffffffffffffffff19166020820180517bffffffffffffffffffffffffffffffffffffffffffffffffffffffff8381831617835250505050612c71565b50505050565b612ba28282604051602401612b20929190613f48565b6040516020818303038152906040527f9710a9d0000000000000000000000000000000000000000000000000000000007bffffffffffffffffffffffffffffffffffffffffffffffffffffffff19166020820180517bffffffffffffffffffffffffffffffffffffffffffffffffffffffff8381831617835250505050612c71565b5050565b600081600001549050919050565b612bce828260405180602001604052806000815250612e3b565b5050565b612c6c838383604051602401612bea93929190613f78565b6040516020818303038152906040527f969cdd03000000000000000000000000000000000000000000000000000000007bffffffffffffffffffffffffffffffffffffffffffffffffffffffff19166020820180517bffffffffffffffffffffffffffffffffffffffffffffffffffffffff8381831617835250505050612c71565b505050565b60008151905060006a636f6e736f6c652e6c6f679050602083016000808483855afa5050505050565b505050565b505050565b6000612cc58473ffffffffffffffffffffffffffffffffffffffff16612e96565b15612e2e578373ffffffffffffffffffffffffffffffffffffffff1663150b7a02612cee61212e565b8786866040518563ffffffff1660e01b8152600401612d109493929190613d1a565b602060405180830381600087803b158015612d2a57600080fd5b505af1925050508015612d5b57506040513d601f19601f82011682018060405250810190612d589190613460565b60015b612dde573d8060008114612d8b576040519150601f19603f3d011682016040523d82523d6000602084013e612d90565b606091505b50600081511415612dd6576040517f08c379a0000000000000000000000000000000000000000000000000000000008152600401612dcd90614002565b60405180910390fd5b805181602001fd5b63150b7a0260e01b7bffffffffffffffffffffffffffffffffffffffffffffffffffffffff1916817bffffffffffffffffffffffffffffffffffffffffffffffffffffffff191614915050612e33565b600190505b949350505050565b612e458383612eb9565b612e526000848484612ca4565b612e91576040517f08c379a0000000000000000000000000000000000000000000000000000000008152600401612e8890614002565b60405180910390fd5b505050565b6000808273ffffffffffffffffffffffffffffffffffffffff163b119050919050565b600073ffffffffffffffffffffffffffffffffffffffff168273ffffffffffffffffffffffffffffffffffffffff161415612f29576040517f08c379a0000000000000000000000000000000000000000000000000000000008152600401612f2090614142565b60405180910390fd5b612f32816120c2565b15612f72576040517f08c379a0000000000000000000000000000000000000000000000000000000008152600401612f6990614042565b60405180910390fd5b612f7e60008383612c9a565b6001600360008473ffffffffffffffffffffffffffffffffffffffff1673ffffffffffffffffffffffffffffffffffffffff1681526020019081526020016000206000828254612fce91906143f8565b92505081905550816002600083815260200190815260200160002060006101000a81548173ffffffffffffffffffffffffffffffffffffffff021916908373ffffffffffffffffffffffffffffffffffffffff160217905550808273ffffffffffffffffffffffffffffffffffffffff16600073ffffffffffffffffffffffffffffffffffffffff167fddf252ad1be2c89b69c2b068fc378daa952ba7f163c4a11628f55a4df523b3ef60405160405180910390a461308f60008383612c9f565b5050565b6040518060e00160405280606081526020016060815260200160008152602001600081526020016000815260200160008152602001600081525090565b6040518061012001604052806000815260200160608152602001606081526020016000815260200160008152602001600081526020016000815260200160008152602001600081525090565b828054613128906145c3565b90600052602060002090601f01602090048101928261314a5760008555613191565b82601f1061316357805160ff1916838001178555613191565b82800160010185558215613191579182015b82811115613190578251825591602001919060010190613175565b5b50905061319e91906131a2565b5090565b5b808211156131bb5760008160009055506001016131a3565b5090565b60006131d26131cd84614301565b6142dc565b9050828152602081018484840111156131ea57600080fd5b6131f5848285614581565b509392505050565b60008135905061320c81614d56565b92915050565b60008135905061322181614d6d565b92915050565b60008135905061323681614d84565b92915050565b60008151905061324b81614d84565b92915050565b600082601f83011261326257600080fd5b81356132728482602086016131bf565b91505092915050565b60008135905061328a81614d9b565b92915050565b6000602082840312156132a257600080fd5b60006132b0848285016131fd565b91505092915050565b600080604083850312156132cc57600080fd5b60006132da858286016131fd565b92505060206132eb858286016131fd565b9150509250929050565b60008060006060848603121561330a57600080fd5b6000613318868287016131fd565b9350506020613329868287016131fd565b925050604061333a8682870161327b565b9150509250925092565b6000806000806080858703121561335a57600080fd5b6000613368878288016131fd565b9450506020613379878288016131fd565b935050604061338a8782880161327b565b925050606085013567ffffffffffffffff8111156133a757600080fd5b6133b387828801613251565b91505092959194509250565b600080604083850312156133d257600080fd5b60006133e0858286016131fd565b92505060206133f185828601613212565b9150509250929050565b6000806040838503121561340e57600080fd5b600061341c858286016131fd565b925050602061342d8582860161327b565b9150509250929050565b60006020828403121561344957600080fd5b600061345784828501613227565b91505092915050565b60006020828403121561347257600080fd5b60006134808482850161323c565b91505092915050565b60006020828403121561349b57600080fd5b60006134a98482850161327b565b91505092915050565b60006134be83836134de565b60208301905092915050565b60006134d68383613a82565b905092915050565b6134e78161450d565b82525050565b6134f68161450d565b82525050565b600061350782614352565b6135118185614398565b935061351c83614332565b8060005b8381101561354d57815161353488826134b2565b975061353f8361437e565b925050600181019050613520565b5085935050505092915050565b60006135658261435d565b61356f81856143a9565b93508360208202850161358185614342565b8060005b858110156135bd578484038952815161359e85826134ca565b94506135a98361438b565b925060208a01995050600181019050613585565b50829750879550505050505092915050565b6135d88161451f565b82525050565b60006135e982614368565b6135f381856143ba565b9350613603818560208601614590565b61360c8161475c565b840191505092915050565b600061362282614373565b61362c81856143cb565b935061363c818560208601614590565b6136458161475c565b840191505092915050565b600061365b82614373565b61366581856143dc565b9350613675818560208601614590565b61367e8161475c565b840191505092915050565b600061369482614373565b61369e81856143ed565b93506136ae818560208601614590565b80840191505092915050565b60006136c7600b836143ed565b91506136d28261476d565b600b82019050919050565b60006136ea6032836143dc565b91506136f582614796565b604082019050919050565b600061370d6025836143dc565b9150613718826147e5565b604082019050919050565b6000613730601c836143dc565b915061373b82614834565b602082019050919050565b60006137536015836143dc565b915061375e8261485d565b602082019050919050565b6000613776600e836143ed565b915061378182614886565b600e82019050919050565b60006137996024836143dc565b91506137a4826148af565b604082019050919050565b60006137bc6019836143dc565b91506137c7826148fe565b602082019050919050565b60006137df602c836143dc565b91506137ea82614927565b604082019050919050565b60006138026038836143dc565b915061380d82614976565b604082019050919050565b6000613825602a836143dc565b9150613830826149c5565b604082019050919050565b60006138486029836143dc565b915061385382614a14565b604082019050919050565b600061386b6004836143ed565b915061387682614a63565b600482019050919050565b600061388e6020836143dc565b915061389982614a8c565b602082019050919050565b60006138b1602c836143dc565b91506138bc82614ab5565b604082019050919050565b60006138d4600a836143ed565b91506138df82614b04565b600a82019050919050565b60006138f76026836143ed565b915061390282614b2d565b602682019050919050565b600061391a6021836143dc565b915061392582614b7c565b604082019050919050565b600061393d601d836143ed565b915061394882614bcb565b601d82019050919050565b60006139606069836143ed565b915061396b82614bf4565b606982019050919050565b60006139836013836143dc565b915061398e82614c8f565b602082019050919050565b60006139a66031836143dc565b91506139b182614cb8565b604082019050919050565b60006139c9603d836143ed565b91506139d482614d07565b603d82019050919050565b600060e08301600083015184820360008601526139fc8282613617565b91505060208301518482036020860152613a168282613617565b9150506040830151613a2b6040860182613c1a565b506060830151613a3e6060860182613c1a565b506080830151613a516080860182613c1a565b5060a0830151613a6460a0860182613c1a565b5060c0830151613a7760c0860182613c1a565b508091505092915050565b600061012083016000830151613a9b6000860182613c1a565b5060208301518482036020860152613ab38282613617565b91505060408301518482036040860152613acd8282613617565b9150506060830151613ae26060860182613c1a565b506080830151613af56080860182613c1a565b5060a0830151613b0860a0860182613c1a565b5060c0830151613b1b60c0860182613c1a565b5060e0830151613b2e60e0860182613c1a565b50610100830151613b43610100860182613c1a565b508091505092915050565b600061012083016000830151613b676000860182613c1a565b5060208301518482036020860152613b7f8282613617565b91505060408301518482036040860152613b998282613617565b9150506060830151613bae6060860182613c1a565b506080830151613bc16080860182613c1a565b5060a0830151613bd460a0860182613c1a565b5060c0830151613be760c0860182613c1a565b5060e0830151613bfa60e0860182613c1a565b50610100830151613c0f610100860182613c1a565b508091505092915050565b613c2381614577565b82525050565b613c3281614577565b82525050565b6000613c43826138c7565b9150613c4f8289613689565b9150613c5a826136ba565b9150613c668288613689565b9150613c7182613953565b9150613c7d8287613689565b9150613c88826139bc565b9150613c948286613689565b9150613c9f82613769565b9150613cab8285613689565b9150613cb6826138ea565b9150613cc28284613689565b9150613ccd8261385e565b9150819050979650505050505050565b6000613ce882613930565b9150613cf48284613689565b915081905092915050565b6000602082019050613d1460008301846134ed565b92915050565b6000608082019050613d2f60008301876134ed565b613d3c60208301866134ed565b613d496040830185613c29565b8181036060830152613d5b81846135de565b905095945050505050565b6000606082019050613d7b60008301866134ed565b613d886020830185613c29565b613d956040830184613c29565b949350505050565b60006020820190508181036000830152613db781846134fc565b905092915050565b60006020820190508181036000830152613dd9818461355a565b905092915050565b6000602082019050613df660008301846135cf565b92915050565b60006020820190508181036000830152613e168184613650565b905092915050565b60006080820190508181036000830152613e388187613650565b90508181036020830152613e4c8186613650565b9050613e5b6040830185613c29565b8181036060830152613e6d8184613650565b905095945050505050565b60006080820190508181036000830152613e928187613650565b90508181036020830152613ea68186613650565b9050613eb56040830185613c29565b613ec26060830184613c29565b95945050505050565b600060e0820190508181036000830152613ee5818a613650565b90508181036020830152613ef98189613650565b9050613f086040830188613c29565b613f156060830187613c29565b613f226080830186613c29565b613f2f60a0830185613c29565b613f3c60c0830184613c29565b98975050505050505050565b60006040820190508181036000830152613f628185613650565b9050613f716020830184613c29565b9392505050565b60006060820190508181036000830152613f928186613650565b9050613fa16020830185613c29565b613fae6040830184613c29565b949350505050565b60006080820190508181036000830152613fd08187613650565b9050613fdf6020830186613c29565b613fec6040830185613c29565b613ff96060830184613c29565b95945050505050565b6000602082019050818103600083015261401b816136dd565b9050919050565b6000602082019050818103600083015261403b81613700565b9050919050565b6000602082019050818103600083015261405b81613723565b9050919050565b6000602082019050818103600083015261407b81613746565b9050919050565b6000602082019050818103600083015261409b8161378c565b9050919050565b600060208201905081810360008301526140bb816137af565b9050919050565b600060208201905081810360008301526140db816137d2565b9050919050565b600060208201905081810360008301526140fb816137f5565b9050919050565b6000602082019050818103600083015261411b81613818565b9050919050565b6000602082019050818103600083015261413b8161383b565b9050919050565b6000602082019050818103600083015261415b81613881565b9050919050565b6000602082019050818103600083015261417b816138a4565b9050919050565b6000602082019050818103600083015261419b8161390d565b9050919050565b600060208201905081810360008301526141bb81613976565b9050919050565b600060208201905081810360008301526141db81613999565b9050919050565b600060208201905081810360008301526141fc81846139df565b905092915050565b6000602082019050818103600083015261421e8184613b4e565b905092915050565b600060208201905061423b6000830184613c29565b92915050565b600061012082019050614257600083018c613c29565b8181036020830152614269818b613650565b9050818103604083015261427d818a613650565b905061428c6060830189613c29565b6142996080830188613c29565b6142a660a0830187613c29565b6142b360c0830186613c29565b6142c060e0830185613c29565b6142ce610100830184613c29565b9a9950505050505050505050565b60006142e66142f7565b90506142f282826145f5565b919050565b6000604051905090565b600067ffffffffffffffff82111561431c5761431b61472d565b5b6143258261475c565b9050602081019050919050565b6000819050602082019050919050565b6000819050602082019050919050565b600081519050919050565b600081519050919050565b600081519050919050565b600081519050919050565b6000602082019050919050565b6000602082019050919050565b600082825260208201905092915050565b600082825260208201905092915050565b600082825260208201905092915050565b600082825260208201905092915050565b600082825260208201905092915050565b600081905092915050565b600061440382614577565b915061440e83614577565b9250827fffffffffffffffffffffffffffffffffffffffffffffffffffffffffffffffff03821115614443576144426146a0565b5b828201905092915050565b600061445982614577565b915061446483614577565b925082614474576144736146cf565b5b828204905092915050565b600061448a82614577565b915061449583614577565b9250817fffffffffffffffffffffffffffffffffffffffffffffffffffffffffffffffff04831182151516156144ce576144cd6146a0565b5b828202905092915050565b60006144e482614577565b91506144ef83614577565b925082821015614502576145016146a0565b5b828203905092915050565b600061451882614557565b9050919050565b60008115159050919050565b60007fffffffff0000000000000000000000000000000000000000000000000000000082169050919050565b600073ffffffffffffffffffffffffffffffffffffffff82169050919050565b6000819050919050565b82818337600083830152505050565b60005b838110156145ae578082015181840152602081019050614593565b838111156145bd576000848401525b50505050565b600060028204905060018216806145db57607f821691505b602082108114156145ef576145ee6146fe565b5b50919050565b6145fe8261475c565b810181811067ffffffffffffffff8211171561461d5761461c61472d565b5b80604052505050565b600061463182614577565b91507fffffffffffffffffffffffffffffffffffffffffffffffffffffffffffffffff821415614664576146636146a0565b5b600182019050919050565b600061467a82614577565b915061468583614577565b925082614695576146946146cf565b5b828206905092915050565b7f4e487b7100000000000000000000000000000000000000000000000000000000600052601160045260246000fd5b7f4e487b7100000000000000000000000000000000000000000000000000000000600052601260045260246000fd5b7f4e487b7100000000000000000000000000000000000000000000000000000000600052602260045260246000fd5b7f4e487b7100000000000000000000000000000000000000000000000000000000600052604160045260246000fd5b6000601f19601f8301169050919050565b7f202d2d204e465420233a20000000000000000000000000000000000000000000600082015250565b7f4552433732313a207472616e7366657220746f206e6f6e20455243373231526560008201527f63656976657220696d706c656d656e7465720000000000000000000000000000602082015250565b7f4552433732313a207472616e736665722066726f6d20696e636f72726563742060008201527f6f776e6572000000000000000000000000000000000000000000000000000000602082015250565b7f4552433732313a20746f6b656e20616c7265616479206d696e74656400000000600082015250565b7f4572726f723a20506c6179657220697320646561640000000000000000000000600082015250565b7f2c20226d61785f76616c7565223a000000000000000000000000000000000000600082015250565b7f4552433732313a207472616e7366657220746f20746865207a65726f2061646460008201527f7265737300000000000000000000000000000000000000000000000000000000602082015250565b7f4552433732313a20617070726f766520746f2063616c6c657200000000000000600082015250565b7f4552433732313a206f70657261746f7220717565727920666f72206e6f6e657860008201527f697374656e7420746f6b656e0000000000000000000000000000000000000000602082015250565b7f4552433732313a20617070726f76652063616c6c6572206973206e6f74206f7760008201527f6e6572206e6f7220617070726f76656420666f7220616c6c0000000000000000602082015250565b7f4552433732313a2062616c616e636520717565727920666f7220746865207a6560008201527f726f206164647265737300000000000000000000000000000000000000000000602082015250565b7f4552433732313a206f776e657220717565727920666f72206e6f6e657869737460008201527f656e7420746f6b656e0000000000000000000000000000000000000000000000602082015250565b7f7d205d7d00000000000000000000000000000000000000000000000000000000600082015250565b7f4552433732313a206d696e7420746f20746865207a65726f2061646472657373600082015250565b7f4552433732313a20617070726f76656420717565727920666f72206e6f6e657860008201527f697374656e7420746f6b656e0000000000000000000000000000000000000000602082015250565b7f7b226e616d65223a202200000000000000000000000000000000000000000000600082015250565b7f7d2c207b202274726169745f74797065223a2022456e65726779222c2022766160008201527f6c7565223a200000000000000000000000000000000000000000000000000000602082015250565b7f4552433732313a20617070726f76616c20746f2063757272656e74206f776e6560008201527f7200000000000000000000000000000000000000000000000000000000000000602082015250565b7f646174613a6170706c69636174696f6e2f6a736f6e3b6261736536342c000000600082015250565b7f222c20226465736372697074696f6e223a20225468697320697320616e204e4660008201527f542074686174206c6574732070656f706c6520706c617920696e20746865206760208201527f616d65204d657461766572736520536c6179657221222c2022696d616765223a60408201527f2022697066733a2f2f0000000000000000000000000000000000000000000000606082015250565b7f4572726f723a20426f7373206973206465616400000000000000000000000000600082015250565b7f4552433732313a207472616e736665722063616c6c6572206973206e6f74206f60008201527f776e6572206e6f7220617070726f766564000000000000000000000000000000602082015250565b7f222c202261747472696275746573223a205b207b202274726169745f7479706560008201527f223a20224865616c746820506f696e7473222c202276616c7565223a20000000602082015250565b614d5f8161450d565b8114614d6a57600080fd5b50565b614d768161451f565b8114614d8157600080fd5b50565b614d8d8161452b565b8114614d9857600080fd5b50565b614da481614577565b8114614daf57600080fd5b5056fe506c617965722061747461636b656420626f73732e204e657720626f73732068703a2025730a506c6179657220772f206368617261637465722025732061626f757420746f2061747461636b2c206861732025732048502c20616e642025732041444142434445464748494a4b4c4d4e4f505152535455565758595a6162636465666768696a6b6c6d6e6f707172737475767778797a303132333435363738392b2f426f73732061747461636b656420706c617965722e204e657720706c617965722068703a2025730a4d696e746564204e465420772f20746f6b656e496420257320616e6420636861726163746572496e646578202573a26469706673582212208ff0586ca05b34f99d7ff1ce237842d323a5d2d47c550694d30e308193e9f4f164736f6c63430008010033446f6e6520696e697469616c697a696e6720257320772f2048502025732c20696d67202573616e6420656e657267792c2025732c2061747461636b44616d6167652025732c2068704865616c696e67466163746f72202573",
  "linkReferences": {},
  "deployedLinkReferences": {}
}