{
  "_format": "hh-sol-artifact-1",
  "contractName": "MyEpicGame",
  "sourceName": "contracts/MyEpicGame.sol",
  "abi": [
    {
      "inputs": [
        {
          "internalType": "string[]",
          "name": "characterNames",
          "type": "string[]"
        },
        {
          "internalType": "string[]",
          "name": "characterImageURIs",
          "type": "string[]"
        },
        {
          "internalType": "uint256[]",
          "name": "characterHp",
          "type": "uint256[]"
        },
        {
          "internalType": "uint256[]",
          "name": "characterEnergy",
          "type": "uint256[]"
        },
        {
          "internalType": "uint256[]",
          "name": "characterAttackDamage",
          "type": "uint256[]"
        },
        {
          "internalType": "uint256[]",
          "name": "characterHpHealingFactor",
          "type": "uint256[]"
        },
        {
          "internalType": "string",
          "name": "bossName",
          "type": "string"
        },
        {
          "internalType": "string",
          "name": "bossImageURI",
          "type": "string"
        },
        {
          "internalType": "uint256",
          "name": "bossHp",
          "type": "uint256"
        },
        {
          "internalType": "uint256",
          "name": "bossEnergy",
          "type": "uint256"
        },
        {
          "internalType": "uint256",
          "name": "bossAttackDamage",
          "type": "uint256"
        }
      ],
      "stateMutability": "nonpayable",
      "type": "constructor"
    },
    {
      "anonymous": false,
      "inputs": [
        {
          "indexed": true,
          "internalType": "address",
          "name": "owner",
          "type": "address"
        },
        {
          "indexed": true,
          "internalType": "address",
          "name": "approved",
          "type": "address"
        },
        {
          "indexed": true,
          "internalType": "uint256",
          "name": "tokenId",
          "type": "uint256"
        }
      ],
      "name": "Approval",
      "type": "event"
    },
    {
      "anonymous": false,
      "inputs": [
        {
          "indexed": true,
          "internalType": "address",
          "name": "owner",
          "type": "address"
        },
        {
          "indexed": true,
          "internalType": "address",
          "name": "operator",
          "type": "address"
        },
        {
          "indexed": false,
          "internalType": "bool",
          "name": "approved",
          "type": "bool"
        }
      ],
      "name": "ApprovalForAll",
      "type": "event"
    },
    {
      "anonymous": false,
      "inputs": [
        {
          "indexed": false,
          "internalType": "address",
          "name": "sender",
          "type": "address"
        },
        {
          "indexed": false,
          "internalType": "uint256",
          "name": "newBossHp",
          "type": "uint256"
        },
        {
          "indexed": false,
          "internalType": "uint256",
          "name": "newPlayerHp",
          "type": "uint256"
        }
      ],
      "name": "AttackComplete",
      "type": "event"
    },
    {
      "anonymous": false,
      "inputs": [
        {
          "indexed": false,
          "internalType": "address",
          "name": "sender",
          "type": "address"
        },
        {
          "indexed": false,
          "internalType": "uint256",
          "name": "tokenId",
          "type": "uint256"
        },
        {
          "indexed": false,
          "internalType": "uint256",
          "name": "characterIndex",
          "type": "uint256"
        }
      ],
      "name": "CharacterNFTMinted",
      "type": "event"
    },
    {
      "anonymous": false,
      "inputs": [],
      "name": "CriticalHit",
      "type": "event"
    },
    {
      "anonymous": false,
      "inputs": [
        {
          "indexed": true,
          "internalType": "address",
          "name": "from",
          "type": "address"
        },
        {
          "indexed": true,
          "internalType": "address",
          "name": "to",
          "type": "address"
        },
        {
          "indexed": true,
          "internalType": "uint256",
          "name": "tokenId",
          "type": "uint256"
        }
      ],
      "name": "Transfer",
      "type": "event"
    },
    {
      "inputs": [
        {
          "internalType": "address",
          "name": "to",
          "type": "address"
        },
        {
          "internalType": "uint256",
          "name": "tokenId",
          "type": "uint256"
        }
      ],
      "name": "approve",
      "outputs": [],
      "stateMutability": "nonpayable",
      "type": "function"
    },
    {
      "inputs": [],
      "name": "attackBoss",
      "outputs": [],
      "stateMutability": "nonpayable",
      "type": "function"
    },
    {
      "inputs": [
        {
          "internalType": "address",
          "name": "owner",
          "type": "address"
        }
      ],
      "name": "balanceOf",
      "outputs": [
        {
          "internalType": "uint256",
          "name": "",
          "type": "uint256"
        }
      ],
      "stateMutability": "view",
      "type": "function"
    },
    {
      "inputs": [],
      "name": "bigBoss",
      "outputs": [
        {
          "internalType": "string",
          "name": "name",
          "type": "string"
        },
        {
          "internalType": "string",
          "name": "imageURI",
          "type": "string"
        },
        {
          "internalType": "uint256",
          "name": "hp",
          "type": "uint256"
        },
        {
          "internalType": "uint256",
          "name": "maxHp",
          "type": "uint256"
        },
        {
          "internalType": "uint256",
          "name": "energy",
          "type": "uint256"
        },
        {
          "internalType": "uint256",
          "name": "maxEnergy",
          "type": "uint256"
        },
        {
          "internalType": "uint256",
          "name": "attackDamage",
          "type": "uint256"
        }
      ],
      "stateMutability": "view",
      "type": "function"
    },
    {
      "inputs": [],
      "name": "checkIfUserHasNFT",
      "outputs": [
        {
          "components": [
            {
              "internalType": "uint256",
              "name": "characterIndex",
              "type": "uint256"
            },
            {
              "internalType": "string",
              "name": "name",
              "type": "string"
            },
            {
              "internalType": "string",
              "name": "imageURI",
              "type": "string"
            },
            {
              "internalType": "uint256",
              "name": "hp",
              "type": "uint256"
            },
            {
              "internalType": "uint256",
              "name": "maxHp",
              "type": "uint256"
            },
            {
              "internalType": "uint256",
              "name": "energy",
              "type": "uint256"
            },
            {
              "internalType": "uint256",
              "name": "maxEnergy",
              "type": "uint256"
            },
            {
              "internalType": "uint256",
              "name": "attackDamage",
              "type": "uint256"
            },
            {
              "internalType": "uint256",
              "name": "hpHealingFactor",
              "type": "uint256"
            }
          ],
          "internalType": "struct MyEpicGame.CharacterAttributes",
          "name": "",
          "type": "tuple"
        }
      ],
      "stateMutability": "view",
      "type": "function"
    },
    {
      "inputs": [],
      "name": "getAllDefaultCharacters",
      "outputs": [
        {
          "components": [
            {
              "internalType": "uint256",
              "name": "characterIndex",
              "type": "uint256"
            },
            {
              "internalType": "string",
              "name": "name",
              "type": "string"
            },
            {
              "internalType": "string",
              "name": "imageURI",
              "type": "string"
            },
            {
              "internalType": "uint256",
              "name": "hp",
              "type": "uint256"
            },
            {
              "internalType": "uint256",
              "name": "maxHp",
              "type": "uint256"
            },
            {
              "internalType": "uint256",
              "name": "energy",
              "type": "uint256"
            },
            {
              "internalType": "uint256",
              "name": "maxEnergy",
              "type": "uint256"
            },
            {
              "internalType": "uint256",
              "name": "attackDamage",
              "type": "uint256"
            },
            {
              "internalType": "uint256",
              "name": "hpHealingFactor",
              "type": "uint256"
            }
          ],
          "internalType": "struct MyEpicGame.CharacterAttributes[]",
          "name": "",
          "type": "tuple[]"
        }
      ],
      "stateMutability": "view",
      "type": "function"
    },
    {
      "inputs": [],
      "name": "getAllPlayers",
      "outputs": [
        {
          "internalType": "address[]",
          "name": "",
          "type": "address[]"
        }
      ],
      "stateMutability": "view",
      "type": "function"
    },
    {
      "inputs": [
        {
          "internalType": "uint256",
          "name": "tokenId",
          "type": "uint256"
        }
      ],
      "name": "getApproved",
      "outputs": [
        {
          "internalType": "address",
          "name": "",
          "type": "address"
        }
      ],
      "stateMutability": "view",
      "type": "function"
    },
    {
      "inputs": [],
      "name": "getBigBoss",
      "outputs": [
        {
          "components": [
            {
              "internalType": "string",
              "name": "name",
              "type": "string"
            },
            {
              "internalType": "string",
              "name": "imageURI",
              "type": "string"
            },
            {
              "internalType": "uint256",
              "name": "hp",
              "type": "uint256"
            },
            {
              "internalType": "uint256",
              "name": "maxHp",
              "type": "uint256"
            },
            {
              "internalType": "uint256",
              "name": "energy",
              "type": "uint256"
            },
            {
              "internalType": "uint256",
              "name": "maxEnergy",
              "type": "uint256"
            },
            {
              "internalType": "uint256",
              "name": "attackDamage",
              "type": "uint256"
            }
          ],
          "internalType": "struct MyEpicGame.BigBoss",
          "name": "",
          "type": "tuple"
        }
      ],
      "stateMutability": "view",
      "type": "function"
    },
    {
      "inputs": [
        {
          "internalType": "address",
          "name": "owner",
          "type": "address"
        },
        {
          "internalType": "address",
          "name": "operator",
          "type": "address"
        }
      ],
      "name": "isApprovedForAll",
      "outputs": [
        {
          "internalType": "bool",
          "name": "",
          "type": "bool"
        }
      ],
      "stateMutability": "view",
      "type": "function"
    },
    {
      "inputs": [
        {
          "internalType": "uint256",
          "name": "_characterIndex",
          "type": "uint256"
        }
      ],
      "name": "mintCharacterNFT",
      "outputs": [],
      "stateMutability": "nonpayable",
      "type": "function"
    },
    {
      "inputs": [],
      "name": "name",
      "outputs": [
        {
          "internalType": "string",
          "name": "",
          "type": "string"
        }
      ],
      "stateMutability": "view",
      "type": "function"
    },
    {
      "inputs": [
        {
          "internalType": "uint256",
          "name": "",
          "type": "uint256"
        }
      ],
      "name": "nftHolderAttributes",
      "outputs": [
        {
          "internalType": "uint256",
          "name": "characterIndex",
          "type": "uint256"
        },
        {
          "internalType": "string",
          "name": "name",
          "type": "string"
        },
        {
          "internalType": "string",
          "name": "imageURI",
          "type": "string"
        },
        {
          "internalType": "uint256",
          "name": "hp",
          "type": "uint256"
        },
        {
          "internalType": "uint256",
          "name": "maxHp",
          "type": "uint256"
        },
        {
          "internalType": "uint256",
          "name": "energy",
          "type": "uint256"
        },
        {
          "internalType": "uint256",
          "name": "maxEnergy",
          "type": "uint256"
        },
        {
          "internalType": "uint256",
          "name": "attackDamage",
          "type": "uint256"
        },
        {
          "internalType": "uint256",
          "name": "hpHealingFactor",
          "type": "uint256"
        }
      ],
      "stateMutability": "view",
      "type": "function"
    },
    {
      "inputs": [
        {
          "internalType": "address",
          "name": "",
          "type": "address"
        }
      ],
      "name": "nftHolders",
      "outputs": [
        {
          "internalType": "uint256",
          "name": "",
          "type": "uint256"
        }
      ],
      "stateMutability": "view",
      "type": "function"
    },
    {
      "inputs": [
        {
          "internalType": "uint256",
          "name": "tokenId",
          "type": "uint256"
        }
      ],
      "name": "ownerOf",
      "outputs": [
        {
          "internalType": "address",
          "name": "",
          "type": "address"
        }
      ],
      "stateMutability": "view",
      "type": "function"
    },
    {
      "inputs": [
        {
          "internalType": "address",
          "name": "from",
          "type": "address"
        },
        {
          "internalType": "address",
          "name": "to",
          "type": "address"
        },
        {
          "internalType": "uint256",
          "name": "tokenId",
          "type": "uint256"
        }
      ],
      "name": "safeTransferFrom",
      "outputs": [],
      "stateMutability": "nonpayable",
      "type": "function"
    },
    {
      "inputs": [
        {
          "internalType": "address",
          "name": "from",
          "type": "address"
        },
        {
          "internalType": "address",
          "name": "to",
          "type": "address"
        },
        {
          "internalType": "uint256",
          "name": "tokenId",
          "type": "uint256"
        },
        {
          "internalType": "bytes",
          "name": "_data",
          "type": "bytes"
        }
      ],
      "name": "safeTransferFrom",
      "outputs": [],
      "stateMutability": "nonpayable",
      "type": "function"
    },
    {
      "inputs": [
        {
          "internalType": "address",
          "name": "operator",
          "type": "address"
        },
        {
          "internalType": "bool",
          "name": "approved",
          "type": "bool"
        }
      ],
      "name": "setApprovalForAll",
      "outputs": [],
      "stateMutability": "nonpayable",
      "type": "function"
    },
    {
      "inputs": [
        {
          "internalType": "bytes4",
          "name": "interfaceId",
          "type": "bytes4"
        }
      ],
      "name": "supportsInterface",
      "outputs": [
        {
          "internalType": "bool",
          "name": "",
          "type": "bool"
        }
      ],
      "stateMutability": "view",
      "type": "function"
    },
    {
      "inputs": [],
      "name": "symbol",
      "outputs": [
        {
          "internalType": "string",
          "name": "",
          "type": "string"
        }
      ],
      "stateMutability": "view",
      "type": "function"
    },
    {
      "inputs": [
        {
          "internalType": "uint256",
          "name": "_tokenId",
          "type": "uint256"
        }
      ],
      "name": "tokenURI",
      "outputs": [
        {
          "internalType": "string",
          "name": "",
          "type": "string"
        }
      ],
      "stateMutability": "view",
      "type": "function"
    },
    {
      "inputs": [
        {
          "internalType": "address",
          "name": "",
          "type": "address"
        }
      ],
      "name": "totalAttackDamage",
      "outputs": [
        {
          "internalType": "uint256",
          "name": "",
          "type": "uint256"
        }
      ],
      "stateMutability": "view",
      "type": "function"
    },
    {
      "inputs": [
        {
          "internalType": "address",
          "name": "from",
          "type": "address"
        },
        {
          "internalType": "address",
          "name": "to",
          "type": "address"
        },
        {
          "internalType": "uint256",
          "name": "tokenId",
          "type": "uint256"
        }
      ],
      "name": "transferFrom",
      "outputs": [],
      "stateMutability": "nonpayable",
      "type": "function"
    }
  ],
  "bytecode": "0x60806040523480156200001157600080fd5b506040516200621738038062006217833981810160405281019062000037919062000b3d565b6040518060400160405280600881526020017f57617272696f72730000000000000000000000000000000000000000000000008152506040518060400160405280600481526020017f4865726f000000000000000000000000000000000000000000000000000000008152508160009080519060200190620000bb929190620008d0565b508060019080519060200190620000d4929190620008d0565b50505060644442620000e7919062000eed565b620000f3919062000ff6565b600e8190555060005b8b518110156200066857600f6040518061012001604052808381526020018e848151811062000154577f4e487b7100000000000000000000000000000000000000000000000000000000600052603260045260246000fd5b602002602001015181526020018d84815181106200019b577f4e487b7100000000000000000000000000000000000000000000000000000000600052603260045260246000fd5b602002602001015181526020018c8481518110620001e2577f4e487b7100000000000000000000000000000000000000000000000000000000600052603260045260246000fd5b602002602001015181526020018c848151811062000229577f4e487b7100000000000000000000000000000000000000000000000000000000600052603260045260246000fd5b602002602001015181526020018b848151811062000270577f4e487b7100000000000000000000000000000000000000000000000000000000600052603260045260246000fd5b602002602001015181526020018b8481518110620002b7577f4e487b7100000000000000000000000000000000000000000000000000000000600052603260045260246000fd5b602002602001015181526020018a8481518110620002fe577f4e487b7100000000000000000000000000000000000000000000000000000000600052603260045260246000fd5b6020026020010151815260200189848151811062000345577f4e487b7100000000000000000000000000000000000000000000000000000000600052603260045260246000fd5b60200260200101518152509080600181540180825580915050600190039060005260206000209060090201600090919091909150600082015181600001556020820151816001019080519060200190620003a1929190620008d0565b506040820151816002019080519060200190620003c0929190620008d0565b50606082015181600301556080820151816004015560a0820151816005015560c0820151816006015560e08201518160070155610100820151816008015550506000600f82815481106200043d577f4e487b7100000000000000000000000000000000000000000000000000000000600052603260045260246000fd5b90600052602060002090600902016040518061012001604052908160008201548152602001600182018054620004739062000f8a565b80601f0160208091040260200160405190810160405280929190818152602001828054620004a19062000f8a565b8015620004f25780601f10620004c657610100808354040283529160200191620004f2565b820191906000526020600020905b815481529060010190602001808311620004d457829003601f168201915b505050505081526020016002820180546200050d9062000f8a565b80601f01602080910402602001604051908101604052809291908181526020018280546200053b9062000f8a565b80156200058c5780601f1062000560576101008083540402835291602001916200058c565b820191906000526020600020905b8154815290600101906020018083116200056e57829003601f168201915b505050505081526020016003820154815260200160048201548152602001600582015481526020016006820154815260200160078201548152602001600882015481525050905062000611604051806060016040528060258152602001620061bf602591398260200151836060015184604001516200073960201b620020b81760201c565b62000650604051806060016040528060338152602001620061e4603391398260a001518360e00151846101000151620007e560201b6200215a1760201c565b5060018162000660919062000eed565b9050620000fc565b506040518060e001604052808681526020018581526020018481526020018481526020018381526020018381526020018281525060066000820151816000019080519060200190620006bc929190620008d0565b506020820151816001019080519060200190620006db929190620008d0565b5060408201518160020155606082015181600301556080820151816004015560a0820151816005015560c0820151816006015590505062000728600d6200089160201b620021fc1760201c565b505050505050505050505062001115565b620007df8484848460405160240162000756949392919062000d5e565b6040516020818303038152906040527f8d142cdd000000000000000000000000000000000000000000000000000000007bffffffffffffffffffffffffffffffffffffffffffffffffffffffff19166020820180517bffffffffffffffffffffffffffffffffffffffffffffffffffffffff8381831617835250505050620008a760201b60201c565b50505050565b6200088b8484848460405160240162000802949392919062000dc0565b6040516020818303038152906040527f08ee5666000000000000000000000000000000000000000000000000000000007bffffffffffffffffffffffffffffffffffffffffffffffffffffffff19166020820180517bffffffffffffffffffffffffffffffffffffffffffffffffffffffff8381831617835250505050620008a760201b60201c565b50505050565b6001816000016000828254019250508190555050565b60008151905060006a636f6e736f6c652e6c6f679050602083016000808483855afa5050505050565b828054620008de9062000f8a565b90600052602060002090601f0160209004810192826200090257600085556200094e565b82601f106200091d57805160ff19168380011785556200094e565b828001600101855582156200094e579182015b828111156200094d57825182559160200191906001019062000930565b5b5090506200095d919062000961565b5090565b5b808211156200097c57600081600090555060010162000962565b5090565b600062000997620009918462000e3d565b62000e14565b9050808382526020820190508260005b85811015620009db5781518501620009c0888262000af9565b845260208401935060208301925050600181019050620009a7565b5050509392505050565b6000620009fc620009f68462000e6c565b62000e14565b9050808382526020820190508285602086028201111562000a1c57600080fd5b60005b8581101562000a50578162000a35888262000b26565b84526020840193506020830192505060018101905062000a1f565b5050509392505050565b600062000a7162000a6b8462000e9b565b62000e14565b90508281526020810184848401111562000a8a57600080fd5b62000a9784828562000f54565b509392505050565b600082601f83011262000ab157600080fd5b815162000ac384826020860162000980565b91505092915050565b600082601f83011262000ade57600080fd5b815162000af0848260208601620009e5565b91505092915050565b600082601f83011262000b0b57600080fd5b815162000b1d84826020860162000a5a565b91505092915050565b60008151905062000b3781620010fb565b92915050565b60008060008060008060008060008060006101608c8e03121562000b6057600080fd5b60008c015167ffffffffffffffff81111562000b7b57600080fd5b62000b898e828f0162000a9f565b9b505060208c015167ffffffffffffffff81111562000ba757600080fd5b62000bb58e828f0162000a9f565b9a505060408c015167ffffffffffffffff81111562000bd357600080fd5b62000be18e828f0162000acc565b99505060608c015167ffffffffffffffff81111562000bff57600080fd5b62000c0d8e828f0162000acc565b98505060808c015167ffffffffffffffff81111562000c2b57600080fd5b62000c398e828f0162000acc565b97505060a08c015167ffffffffffffffff81111562000c5757600080fd5b62000c658e828f0162000acc565b96505060c08c015167ffffffffffffffff81111562000c8357600080fd5b62000c918e828f0162000af9565b95505060e08c015167ffffffffffffffff81111562000caf57600080fd5b62000cbd8e828f0162000af9565b94505061010062000cd18e828f0162000b26565b93505061012062000ce58e828f0162000b26565b92505061014062000cf98e828f0162000b26565b9150509295989b509295989b9093969950565b600062000d198262000ed1565b62000d25818562000edc565b935062000d3781856020860162000f54565b62000d4281620010ea565b840191505092915050565b62000d588162000f4a565b82525050565b6000608082019050818103600083015262000d7a818762000d0c565b9050818103602083015262000d90818662000d0c565b905062000da1604083018562000d4d565b818103606083015262000db5818462000d0c565b905095945050505050565b6000608082019050818103600083015262000ddc818762000d0c565b905062000ded602083018662000d4d565b62000dfc604083018562000d4d565b62000e0b606083018462000d4d565b95945050505050565b600062000e2062000e33565b905062000e2e828262000fc0565b919050565b6000604051905090565b600067ffffffffffffffff82111562000e5b5762000e5a620010bb565b5b602082029050602081019050919050565b600067ffffffffffffffff82111562000e8a5762000e89620010bb565b5b602082029050602081019050919050565b600067ffffffffffffffff82111562000eb95762000eb8620010bb565b5b62000ec482620010ea565b9050602081019050919050565b600081519050919050565b600082825260208201905092915050565b600062000efa8262000f4a565b915062000f078362000f4a565b9250827fffffffffffffffffffffffffffffffffffffffffffffffffffffffffffffffff0382111562000f3f5762000f3e6200102e565b5b828201905092915050565b6000819050919050565b60005b8381101562000f7457808201518184015260208101905062000f57565b8381111562000f84576000848401525b50505050565b6000600282049050600182168062000fa357607f821691505b6020821081141562000fba5762000fb96200108c565b5b50919050565b62000fcb82620010ea565b810181811067ffffffffffffffff8211171562000fed5762000fec620010bb565b5b80604052505050565b6000620010038262000f4a565b9150620010108362000f4a565b9250826200102357620010226200105d565b5b828206905092915050565b7f4e487b7100000000000000000000000000000000000000000000000000000000600052601160045260246000fd5b7f4e487b7100000000000000000000000000000000000000000000000000000000600052601260045260246000fd5b7f4e487b7100000000000000000000000000000000000000000000000000000000600052602260045260246000fd5b7f4e487b7100000000000000000000000000000000000000000000000000000000600052604160045260246000fd5b6000601f19601f8301169050919050565b620011068162000f4a565b81146200111257600080fd5b50565b61509a80620011256000396000f3fe608060405234801561001057600080fd5b506004361061014d5760003560e01c806395d89b41116100c3578063c87b56dd1161007c578063c87b56dd146103d2578063c8cf27f414610402578063d4f24c5b14610420578063e985e9c51461042a578063efa1c4821461045a578063f8b81ef7146104785761014d565b806395d89b411461030257806398da4c9514610320578063a22cb46514610358578063a9c3267914610374578063b88d4fde14610398578063b953084e146103b45761014d565b806323b872dd1161011557806323b872dd1461020a57806328f1cc551461022657806342842e0e146102565780636352211e1461027257806370a08231146102a25780637df124a1146102d25761014d565b806301ffc9a7146101525780630665f9611461018257806306fdde03146101a0578063081812fc146101be578063095ea7b3146101ee575b600080fd5b61016c600480360381019061016791906135f1565b610494565b6040516101799190613f9b565b60405180910390f35b61018a610576565b604051610197919061439c565b60405180910390f35b6101a86106e6565b6040516101b59190613fb6565b60405180910390f35b6101d860048036038101906101d39190613643565b610778565b6040516101e59190613eb9565b60405180910390f35b610208600480360381019061020391906135b5565b6107fd565b005b610224600480360381019061021f91906134af565b610915565b005b610240600480360381019061023b919061344a565b610975565b60405161024d91906143e0565b60405180910390f35b610270600480360381019061026b91906134af565b61098d565b005b61028c60048036038101906102879190613643565b6109ad565b6040516102999190613eb9565b60405180910390f35b6102bc60048036038101906102b7919061344a565b610a5f565b6040516102c991906143e0565b60405180910390f35b6102ec60048036038101906102e7919061344a565b610b17565b6040516102f991906143e0565b60405180910390f35b61030a610b2f565b6040516103179190613fb6565b60405180910390f35b61033a60048036038101906103359190613643565b610bc1565b60405161034f999897969594939291906143fb565b60405180910390f35b610372600480360381019061036d9190613579565b610d1f565b005b61037c610d35565b60405161038f9796959493929190614085565b60405180910390f35b6103b260048036038101906103ad91906134fe565b610e75565b005b6103bc610ed7565b6040516103c99190613f79565b60405180910390f35b6103ec60048036038101906103e79190613643565b6110a1565b6040516103f99190613fb6565b60405180910390f35b61040a6112db565b60405161041791906143be565b60405180910390f35b6104286114d8565b005b610444600480360381019061043f9190613473565b6119e4565b6040516104519190613f9b565b60405180910390f35b610462611a78565b60405161046f9190613f57565b60405180910390f35b610492600480360381019061048d9190613643565b611b06565b005b60007f80ac58cd000000000000000000000000000000000000000000000000000000007bffffffffffffffffffffffffffffffffffffffffffffffffffffffff1916827bffffffffffffffffffffffffffffffffffffffffffffffffffffffff1916148061055f57507f5b5e139f000000000000000000000000000000000000000000000000000000007bffffffffffffffffffffffffffffffffffffffffffffffffffffffff1916827bffffffffffffffffffffffffffffffffffffffffffffffffffffffff1916145b8061056f575061056e82612212565b5b9050919050565b61057e61324d565b60066040518060e001604052908160008201805461059b9061477d565b80601f01602080910402602001604051908101604052809291908181526020018280546105c79061477d565b80156106145780601f106105e957610100808354040283529160200191610614565b820191906000526020600020905b8154815290600101906020018083116105f757829003601f168201915b5050505050815260200160018201805461062d9061477d565b80601f01602080910402602001604051908101604052809291908181526020018280546106599061477d565b80156106a65780601f1061067b576101008083540402835291602001916106a6565b820191906000526020600020905b81548152906001019060200180831161068957829003601f168201915b5050505050815260200160028201548152602001600382015481526020016004820154815260200160058201548152602001600682015481525050905090565b6060600080546106f59061477d565b80601f01602080910402602001604051908101604052809291908181526020018280546107219061477d565b801561076e5780601f106107435761010080835404028352916020019161076e565b820191906000526020600020905b81548152906001019060200180831161075157829003601f168201915b5050505050905090565b60006107838261227c565b6107c2576040517f08c379a00000000000000000000000000000000000000000000000000000000081526004016107b99061431c565b60405180910390fd5b6004600083815260200190815260200160002060009054906101000a900473ffffffffffffffffffffffffffffffffffffffff169050919050565b6000610808826109ad565b90508073ffffffffffffffffffffffffffffffffffffffff168373ffffffffffffffffffffffffffffffffffffffff161415610879576040517f08c379a00000000000000000000000000000000000000000000000000000000081526004016108709061433c565b60405180910390fd5b8073ffffffffffffffffffffffffffffffffffffffff166108986122e8565b73ffffffffffffffffffffffffffffffffffffffff1614806108c757506108c6816108c16122e8565b6119e4565b5b610906576040517f08c379a00000000000000000000000000000000000000000000000000000000081526004016108fd9061429c565b60405180910390fd5b61091083836122f0565b505050565b6109266109206122e8565b826123a9565b610965576040517f08c379a000000000000000000000000000000000000000000000000000000000815260040161095c9061437c565b60405180910390fd5b610970838383612487565b505050565b60126020528060005260406000206000915090505481565b6109a883838360405180602001604052806000815250610e75565b505050565b6000806002600084815260200190815260200160002060009054906101000a900473ffffffffffffffffffffffffffffffffffffffff169050600073ffffffffffffffffffffffffffffffffffffffff168173ffffffffffffffffffffffffffffffffffffffff161415610a56576040517f08c379a0000000000000000000000000000000000000000000000000000000008152600401610a4d906142dc565b60405180910390fd5b80915050919050565b60008073ffffffffffffffffffffffffffffffffffffffff168273ffffffffffffffffffffffffffffffffffffffff161415610ad0576040517f08c379a0000000000000000000000000000000000000000000000000000000008152600401610ac7906142bc565b60405180910390fd5b600360008373ffffffffffffffffffffffffffffffffffffffff1673ffffffffffffffffffffffffffffffffffffffff168152602001908152602001600020549050919050565b60116020528060005260406000206000915090505481565b606060018054610b3e9061477d565b80601f0160208091040260200160405190810160405280929190818152602001828054610b6a9061477d565b8015610bb75780601f10610b8c57610100808354040283529160200191610bb7565b820191906000526020600020905b815481529060010190602001808311610b9a57829003601f168201915b5050505050905090565b6010602052806000526040600020600091509050806000015490806001018054610bea9061477d565b80601f0160208091040260200160405190810160405280929190818152602001828054610c169061477d565b8015610c635780601f10610c3857610100808354040283529160200191610c63565b820191906000526020600020905b815481529060010190602001808311610c4657829003601f168201915b505050505090806002018054610c789061477d565b80601f0160208091040260200160405190810160405280929190818152602001828054610ca49061477d565b8015610cf15780601f10610cc657610100808354040283529160200191610cf1565b820191906000526020600020905b815481529060010190602001808311610cd457829003601f168201915b5050505050908060030154908060040154908060050154908060060154908060070154908060080154905089565b610d31610d2a6122e8565b83836126ee565b5050565b6006806000018054610d469061477d565b80601f0160208091040260200160405190810160405280929190818152602001828054610d729061477d565b8015610dbf5780601f10610d9457610100808354040283529160200191610dbf565b820191906000526020600020905b815481529060010190602001808311610da257829003601f168201915b505050505090806001018054610dd49061477d565b80601f0160208091040260200160405190810160405280929190818152602001828054610e009061477d565b8015610e4d5780601f10610e2257610100808354040283529160200191610e4d565b820191906000526020600020905b815481529060010190602001808311610e3057829003601f168201915b5050505050908060020154908060030154908060040154908060050154908060060154905087565b610e86610e806122e8565b836123a9565b610ec5576040517f08c379a0000000000000000000000000000000000000000000000000000000008152600401610ebc9061437c565b60405180910390fd5b610ed18484848461285b565b50505050565b6060600f805480602002602001604051908101604052809291908181526020016000905b8282101561109857838290600052602060002090600902016040518061012001604052908160008201548152602001600182018054610f399061477d565b80601f0160208091040260200160405190810160405280929190818152602001828054610f659061477d565b8015610fb25780601f10610f8757610100808354040283529160200191610fb2565b820191906000526020600020905b815481529060010190602001808311610f9557829003601f168201915b50505050508152602001600282018054610fcb9061477d565b80601f0160208091040260200160405190810160405280929190818152602001828054610ff79061477d565b80156110445780601f1061101957610100808354040283529160200191611044565b820191906000526020600020905b81548152906001019060200180831161102757829003601f168201915b50505050508152602001600382015481526020016004820154815260200160058201548152602001600682015481526020016007820154815260200160088201548152505081526020019060010190610efb565b50505050905090565b606060006010600084815260200190815260200160002060405180610120016040529081600082015481526020016001820180546110de9061477d565b80601f016020809104026020016040519081016040528092919081815260200182805461110a9061477d565b80156111575780601f1061112c57610100808354040283529160200191611157565b820191906000526020600020905b81548152906001019060200180831161113a57829003601f168201915b505050505081526020016002820180546111709061477d565b80601f016020809104026020016040519081016040528092919081815260200182805461119c9061477d565b80156111e95780601f106111be576101008083540402835291602001916111e9565b820191906000526020600020905b8154815290600101906020018083116111cc57829003601f168201915b5050505050815260200160038201548152602001600482015481526020016005820154815260200160068201548152602001600782015481526020016008820154815250509050600061123f82606001516128b7565b9050600061125083608001516128b7565b905060006112618460a001516128b7565b905060006112a78560200151611276896128b7565b876040015187878760405160200161129396959493929190613df2565b604051602081830303815290604052612a64565b90506000816040516020016112bc9190613e97565b6040516020818303038152906040529050809650505050505050919050565b6112e361328a565b6000601160003373ffffffffffffffffffffffffffffffffffffffff1673ffffffffffffffffffffffffffffffffffffffff16815260200190815260200160002054905060008111156114c757600060106000838152602001908152602001600020604051806101200160405290816000820154815260200160018201805461136b9061477d565b80601f01602080910402602001604051908101604052809291908181526020018280546113979061477d565b80156113e45780601f106113b9576101008083540402835291602001916113e4565b820191906000526020600020905b8154815290600101906020018083116113c757829003601f168201915b505050505081526020016002820180546113fd9061477d565b80601f01602080910402602001604051908101604052809291908181526020018280546114299061477d565b80156114765780601f1061144b57610100808354040283529160200191611476565b820191906000526020600020905b81548152906001019060200180831161145957829003601f168201915b505050505081526020016003820154815260200160048201548152602001600582015481526020016006820154815260200160078201548152602001600882015481525050905080925050506114d5565b6114cf61328a565b80925050505b90565b6000601160003373ffffffffffffffffffffffffffffffffffffffff1673ffffffffffffffffffffffffffffffffffffffff16815260200190815260200160002054905060006010600083815260200190815260200160002090506115eb6040518060600160405280603d8152602001614f92603d913982600101805461155e9061477d565b80601f016020809104026020016040519081016040528092919081815260200182805461158a9061477d565b80156115d75780601f106115ac576101008083540402835291602001916115d7565b820191906000526020600020905b8154815290600101906020018083116115ba57829003601f168201915b505050505083600301548460070154612c22565b6116c26040518060400160405280601d81526020017f0a426f7373202573206861732025732048502c20616e64202573204144000000815250600660000180546116349061477d565b80601f01602080910402602001604051908101604052809291908181526020018280546116609061477d565b80156116ad5780601f10611682576101008083540402835291602001916116ad565b820191906000526020600020905b81548152906001019060200180831161169057829003601f168201915b50505050506006600201546006800154612c22565b6000816003015411611709576040517f08c379a00000000000000000000000000000000000000000000000000000000081526004016117009061421c565b60405180910390fd5b600060066002015411611751576040517f08c379a00000000000000000000000000000000000000000000000000000000081526004016117489061435c565b60405180910390fd5b806007015460066002015410156117725760006006600201819055506117f8565b6014600e5410156117d8578060070154600261178e9190614639565b60066002015461179e9190614693565b6006600201819055507fb9351c593ca16bfe49ab9b34f38737b942cc7fafc6716896152177666bc154bd60405160405180910390a16117f7565b80600701546006600201546117ed9190614693565b6006600201819055505b5b6000601260003373ffffffffffffffffffffffffffffffffffffffff1673ffffffffffffffffffffffffffffffffffffffff16815260200190815260200160002054141561188d578060070154601260003373ffffffffffffffffffffffffffffffffffffffff1673ffffffffffffffffffffffffffffffffffffffff168152602001908152602001600020819055506118e8565b8060070154601260003373ffffffffffffffffffffffffffffffffffffffff1673ffffffffffffffffffffffffffffffffffffffff16815260200190815260200160002060008282546118e091906145b2565b925050819055505b6006800154816003015410156119075760008160030181905550611924565b6006800154816003015461191b9190614693565b81600301819055505b6064600e54424461193591906145b2565b61193f91906145b2565b6119499190614829565b600e81905550611976604051806060016040528060258152602001614f6d60259139600660020154612cc4565b61199c60405180606001604052806028815260200161500f602891398260030154612cc4565b7f32bd565ee3f2cb5ddd742bbecd6048d3e9abe90b3827a40c2b72d232e71e3c9d3360066002015483600301546040516119d893929190613f20565b60405180910390a15050565b6000600560008473ffffffffffffffffffffffffffffffffffffffff1673ffffffffffffffffffffffffffffffffffffffff16815260200190815260200160002060008373ffffffffffffffffffffffffffffffffffffffff1673ffffffffffffffffffffffffffffffffffffffff16815260200190815260200160002060009054906101000a900460ff16905092915050565b60606013805480602002602001604051908101604052809291908181526020018280548015611afc57602002820191906000526020600020905b8160009054906101000a900473ffffffffffffffffffffffffffffffffffffffff1673ffffffffffffffffffffffffffffffffffffffff1681526020019060010190808311611ab2575b5050505050905090565b6000611b12600d612d60565b9050611b1e3382612d6e565b604051806101200160405280838152602001600f8481548110611b6a577f4e487b7100000000000000000000000000000000000000000000000000000000600052603260045260246000fd5b90600052602060002090600902016001018054611b869061477d565b80601f0160208091040260200160405190810160405280929190818152602001828054611bb29061477d565b8015611bff5780601f10611bd457610100808354040283529160200191611bff565b820191906000526020600020905b815481529060010190602001808311611be257829003601f168201915b50505050508152602001600f8481548110611c43577f4e487b7100000000000000000000000000000000000000000000000000000000600052603260045260246000fd5b90600052602060002090600902016002018054611c5f9061477d565b80601f0160208091040260200160405190810160405280929190818152602001828054611c8b9061477d565b8015611cd85780601f10611cad57610100808354040283529160200191611cd8565b820191906000526020600020905b815481529060010190602001808311611cbb57829003601f168201915b50505050508152602001600f8481548110611d1c577f4e487b7100000000000000000000000000000000000000000000000000000000600052603260045260246000fd5b9060005260206000209060090201600301548152602001600f8481548110611d6d577f4e487b7100000000000000000000000000000000000000000000000000000000600052603260045260246000fd5b9060005260206000209060090201600401548152602001600f8481548110611dbe577f4e487b7100000000000000000000000000000000000000000000000000000000600052603260045260246000fd5b9060005260206000209060090201600501548152602001600f8481548110611e0f577f4e487b7100000000000000000000000000000000000000000000000000000000600052603260045260246000fd5b9060005260206000209060090201600601548152602001600f8481548110611e60577f4e487b7100000000000000000000000000000000000000000000000000000000600052603260045260246000fd5b9060005260206000209060090201600701548152602001600f8481548110611eb1577f4e487b7100000000000000000000000000000000000000000000000000000000600052603260045260246000fd5b90600052602060002090600902016008015481525060106000838152602001908152602001600020600082015181600001556020820151816001019080519060200190611eff9291906132d6565b506040820151816002019080519060200190611f1c9291906132d6565b50606082015181600301556080820151816004015560a0820151816005015560c0820151816006015560e082015181600701556101008201518160080155905050611f806040518060600160405280602e8152602001615037602e91398284612d8c565b6000601160003373ffffffffffffffffffffffffffffffffffffffff1673ffffffffffffffffffffffffffffffffffffffff168152602001908152602001600020541161202b576013339080600181540180825580915050600190039060005260206000200160009091909190916101000a81548173ffffffffffffffffffffffffffffffffffffffff021916908373ffffffffffffffffffffffffffffffffffffffff1602179055505b80601160003373ffffffffffffffffffffffffffffffffffffffff1673ffffffffffffffffffffffffffffffffffffffff16815260200190815260200160002081905550612079600d6121fc565b7f4bc303fd457a97b4691b9af582ce71868a3d258638c8d4f8c60988a0f0bfb8cd3382846040516120ac93929190613f20565b60405180910390a15050565b612154848484846040516024016120d29493929190613fd8565b6040516020818303038152906040527f8d142cdd000000000000000000000000000000000000000000000000000000007bffffffffffffffffffffffffffffffffffffffffffffffffffffffff19166020820180517bffffffffffffffffffffffffffffffffffffffffffffffffffffffff8381831617835250505050612e2b565b50505050565b6121f6848484846040516024016121749493929190614170565b6040516020818303038152906040527f08ee5666000000000000000000000000000000000000000000000000000000007bffffffffffffffffffffffffffffffffffffffffffffffffffffffff19166020820180517bffffffffffffffffffffffffffffffffffffffffffffffffffffffff8381831617835250505050612e2b565b50505050565b6001816000016000828254019250508190555050565b60007f01ffc9a7000000000000000000000000000000000000000000000000000000007bffffffffffffffffffffffffffffffffffffffffffffffffffffffff1916827bffffffffffffffffffffffffffffffffffffffffffffffffffffffff1916149050919050565b60008073ffffffffffffffffffffffffffffffffffffffff166002600084815260200190815260200160002060009054906101000a900473ffffffffffffffffffffffffffffffffffffffff1673ffffffffffffffffffffffffffffffffffffffff1614159050919050565b600033905090565b816004600083815260200190815260200160002060006101000a81548173ffffffffffffffffffffffffffffffffffffffff021916908373ffffffffffffffffffffffffffffffffffffffff160217905550808273ffffffffffffffffffffffffffffffffffffffff16612363836109ad565b73ffffffffffffffffffffffffffffffffffffffff167f8c5be1e5ebec7d5bd14f71427d1e84f3dd0314c0f7b2291e5b200ac8c7c3b92560405160405180910390a45050565b60006123b48261227c565b6123f3576040517f08c379a00000000000000000000000000000000000000000000000000000000081526004016123ea9061427c565b60405180910390fd5b60006123fe836109ad565b90508073ffffffffffffffffffffffffffffffffffffffff168473ffffffffffffffffffffffffffffffffffffffff161480612440575061243f81856119e4565b5b8061247e57508373ffffffffffffffffffffffffffffffffffffffff1661246684610778565b73ffffffffffffffffffffffffffffffffffffffff16145b91505092915050565b8273ffffffffffffffffffffffffffffffffffffffff166124a7826109ad565b73ffffffffffffffffffffffffffffffffffffffff16146124fd576040517f08c379a00000000000000000000000000000000000000000000000000000000081526004016124f4906141dc565b60405180910390fd5b600073ffffffffffffffffffffffffffffffffffffffff168273ffffffffffffffffffffffffffffffffffffffff16141561256d576040517f08c379a00000000000000000000000000000000000000000000000000000000081526004016125649061423c565b60405180910390fd5b612578838383612e54565b6125836000826122f0565b6001600360008573ffffffffffffffffffffffffffffffffffffffff1673ffffffffffffffffffffffffffffffffffffffff16815260200190815260200160002060008282546125d39190614693565b925050819055506001600360008473ffffffffffffffffffffffffffffffffffffffff1673ffffffffffffffffffffffffffffffffffffffff168152602001908152602001600020600082825461262a91906145b2565b92505081905550816002600083815260200190815260200160002060006101000a81548173ffffffffffffffffffffffffffffffffffffffff021916908373ffffffffffffffffffffffffffffffffffffffff160217905550808273ffffffffffffffffffffffffffffffffffffffff168473ffffffffffffffffffffffffffffffffffffffff167fddf252ad1be2c89b69c2b068fc378daa952ba7f163c4a11628f55a4df523b3ef60405160405180910390a46126e9838383612e59565b505050565b8173ffffffffffffffffffffffffffffffffffffffff168373ffffffffffffffffffffffffffffffffffffffff16141561275d576040517f08c379a00000000000000000000000000000000000000000000000000000000081526004016127549061425c565b60405180910390fd5b80600560008573ffffffffffffffffffffffffffffffffffffffff1673ffffffffffffffffffffffffffffffffffffffff16815260200190815260200160002060008473ffffffffffffffffffffffffffffffffffffffff1673ffffffffffffffffffffffffffffffffffffffff16815260200190815260200160002060006101000a81548160ff0219169083151502179055508173ffffffffffffffffffffffffffffffffffffffff168373ffffffffffffffffffffffffffffffffffffffff167f17307eab39ab6107e8899845ad3d59bd9653f200f220920489ca2b5937696c318360405161284e9190613f9b565b60405180910390a3505050565b612866848484612487565b61287284848484612e5e565b6128b1576040517f08c379a00000000000000000000000000000000000000000000000000000000081526004016128a8906141bc565b60405180910390fd5b50505050565b606060008214156128ff576040518060400160405280600181526020017f30000000000000000000000000000000000000000000000000000000000000008152509050612a5f565b600082905060005b6000821461293157808061291a906147e0565b915050600a8261292a9190614608565b9150612907565b60008167ffffffffffffffff811115612973577f4e487b7100000000000000000000000000000000000000000000000000000000600052604160045260246000fd5b6040519080825280601f01601f1916602001820160405280156129a55781602001600182028036833780820191505090505b5090505b60008514612a58576001826129be9190614693565b9150600a856129cd9190614829565b60306129d991906145b2565b60f81b818381518110612a15577f4e487b7100000000000000000000000000000000000000000000000000000000600052603260045260246000fd5b60200101907effffffffffffffffffffffffffffffffffffffffffffffffffffffffffffff1916908160001a905350600a85612a519190614608565b94506129a9565b8093505050505b919050565b60606000825190506000811415612a8d5760405180602001604052806000815250915050612c1d565b60006003600283612a9e91906145b2565b612aa89190614608565b6004612ab49190614639565b90506000602082612ac591906145b2565b67ffffffffffffffff811115612b04577f4e487b7100000000000000000000000000000000000000000000000000000000600052604160045260246000fd5b6040519080825280601f01601f191660200182016040528015612b365781602001600182028036833780820191505090505b5090506000604051806060016040528060408152602001614fcf604091399050600181016020830160005b86811015612bda5760038101905062ffffff818a015116603f8160121c168401518060081b905060ff603f83600c1c1686015116810190508060081b905060ff603f8360061c1686015116810190508060081b905060ff603f831686015116810190508060e01b90508084526004840193505050612b61565b506003860660018114612bf45760028114612c0457612c0f565b613d3d60f01b6002830352612c0f565b603d60f81b60018303525b508484525050819450505050505b919050565b612cbe84848484604051602401612c3c9493929190614032565b6040516020818303038152906040527fd5cf17d0000000000000000000000000000000000000000000000000000000007bffffffffffffffffffffffffffffffffffffffffffffffffffffffff19166020820180517bffffffffffffffffffffffffffffffffffffffffffffffffffffffff8381831617835250505050612e2b565b50505050565b612d5c8282604051602401612cda929190614102565b6040516020818303038152906040527f9710a9d0000000000000000000000000000000000000000000000000000000007bffffffffffffffffffffffffffffffffffffffffffffffffffffffff19166020820180517bffffffffffffffffffffffffffffffffffffffffffffffffffffffff8381831617835250505050612e2b565b5050565b600081600001549050919050565b612d88828260405180602001604052806000815250612ff5565b5050565b612e26838383604051602401612da493929190614132565b6040516020818303038152906040527f969cdd03000000000000000000000000000000000000000000000000000000007bffffffffffffffffffffffffffffffffffffffffffffffffffffffff19166020820180517bffffffffffffffffffffffffffffffffffffffffffffffffffffffff8381831617835250505050612e2b565b505050565b60008151905060006a636f6e736f6c652e6c6f679050602083016000808483855afa5050505050565b505050565b505050565b6000612e7f8473ffffffffffffffffffffffffffffffffffffffff16613050565b15612fe8578373ffffffffffffffffffffffffffffffffffffffff1663150b7a02612ea86122e8565b8786866040518563ffffffff1660e01b8152600401612eca9493929190613ed4565b602060405180830381600087803b158015612ee457600080fd5b505af1925050508015612f1557506040513d601f19601f82011682018060405250810190612f12919061361a565b60015b612f98573d8060008114612f45576040519150601f19603f3d011682016040523d82523d6000602084013e612f4a565b606091505b50600081511415612f90576040517f08c379a0000000000000000000000000000000000000000000000000000000008152600401612f87906141bc565b60405180910390fd5b805181602001fd5b63150b7a0260e01b7bffffffffffffffffffffffffffffffffffffffffffffffffffffffff1916817bffffffffffffffffffffffffffffffffffffffffffffffffffffffff191614915050612fed565b600190505b949350505050565b612fff8383613073565b61300c6000848484612e5e565b61304b576040517f08c379a0000000000000000000000000000000000000000000000000000000008152600401613042906141bc565b60405180910390fd5b505050565b6000808273ffffffffffffffffffffffffffffffffffffffff163b119050919050565b600073ffffffffffffffffffffffffffffffffffffffff168273ffffffffffffffffffffffffffffffffffffffff1614156130e3576040517f08c379a00000000000000000000000000000000000000000000000000000000081526004016130da906142fc565b60405180910390fd5b6130ec8161227c565b1561312c576040517f08c379a0000000000000000000000000000000000000000000000000000000008152600401613123906141fc565b60405180910390fd5b61313860008383612e54565b6001600360008473ffffffffffffffffffffffffffffffffffffffff1673ffffffffffffffffffffffffffffffffffffffff168152602001908152602001600020600082825461318891906145b2565b92505081905550816002600083815260200190815260200160002060006101000a81548173ffffffffffffffffffffffffffffffffffffffff021916908373ffffffffffffffffffffffffffffffffffffffff160217905550808273ffffffffffffffffffffffffffffffffffffffff16600073ffffffffffffffffffffffffffffffffffffffff167fddf252ad1be2c89b69c2b068fc378daa952ba7f163c4a11628f55a4df523b3ef60405160405180910390a461324960008383612e59565b5050565b6040518060e00160405280606081526020016060815260200160008152602001600081526020016000815260200160008152602001600081525090565b6040518061012001604052806000815260200160608152602001606081526020016000815260200160008152602001600081526020016000815260200160008152602001600081525090565b8280546132e29061477d565b90600052602060002090601f016020900481019282613304576000855561334b565b82601f1061331d57805160ff191683800117855561334b565b8280016001018555821561334b579182015b8281111561334a57825182559160200191906001019061332f565b5b509050613358919061335c565b5090565b5b8082111561337557600081600090555060010161335d565b5090565b600061338c613387846144bb565b614496565b9050828152602081018484840111156133a457600080fd5b6133af84828561473b565b509392505050565b6000813590506133c681614f10565b92915050565b6000813590506133db81614f27565b92915050565b6000813590506133f081614f3e565b92915050565b60008151905061340581614f3e565b92915050565b600082601f83011261341c57600080fd5b813561342c848260208601613379565b91505092915050565b60008135905061344481614f55565b92915050565b60006020828403121561345c57600080fd5b600061346a848285016133b7565b91505092915050565b6000806040838503121561348657600080fd5b6000613494858286016133b7565b92505060206134a5858286016133b7565b9150509250929050565b6000806000606084860312156134c457600080fd5b60006134d2868287016133b7565b93505060206134e3868287016133b7565b92505060406134f486828701613435565b9150509250925092565b6000806000806080858703121561351457600080fd5b6000613522878288016133b7565b9450506020613533878288016133b7565b935050604061354487828801613435565b925050606085013567ffffffffffffffff81111561356157600080fd5b61356d8782880161340b565b91505092959194509250565b6000806040838503121561358c57600080fd5b600061359a858286016133b7565b92505060206135ab858286016133cc565b9150509250929050565b600080604083850312156135c857600080fd5b60006135d6858286016133b7565b92505060206135e785828601613435565b9150509250929050565b60006020828403121561360357600080fd5b6000613611848285016133e1565b91505092915050565b60006020828403121561362c57600080fd5b600061363a848285016133f6565b91505092915050565b60006020828403121561365557600080fd5b600061366384828501613435565b91505092915050565b60006136788383613698565b60208301905092915050565b60006136908383613c3c565b905092915050565b6136a1816146c7565b82525050565b6136b0816146c7565b82525050565b60006136c18261450c565b6136cb8185614552565b93506136d6836144ec565b8060005b838110156137075781516136ee888261366c565b97506136f983614538565b9250506001810190506136da565b5085935050505092915050565b600061371f82614517565b6137298185614563565b93508360208202850161373b856144fc565b8060005b8581101561377757848403895281516137588582613684565b945061376383614545565b925060208a0199505060018101905061373f565b50829750879550505050505092915050565b613792816146d9565b82525050565b60006137a382614522565b6137ad8185614574565b93506137bd81856020860161474a565b6137c681614916565b840191505092915050565b60006137dc8261452d565b6137e68185614585565b93506137f681856020860161474a565b6137ff81614916565b840191505092915050565b60006138158261452d565b61381f8185614596565b935061382f81856020860161474a565b61383881614916565b840191505092915050565b600061384e8261452d565b61385881856145a7565b935061386881856020860161474a565b80840191505092915050565b6000613881600b836145a7565b915061388c82614927565b600b82019050919050565b60006138a4603283614596565b91506138af82614950565b604082019050919050565b60006138c7602583614596565b91506138d28261499f565b604082019050919050565b60006138ea601c83614596565b91506138f5826149ee565b602082019050919050565b600061390d601583614596565b915061391882614a17565b602082019050919050565b6000613930600e836145a7565b915061393b82614a40565b600e82019050919050565b6000613953602483614596565b915061395e82614a69565b604082019050919050565b6000613976601983614596565b915061398182614ab8565b602082019050919050565b6000613999602c83614596565b91506139a482614ae1565b604082019050919050565b60006139bc603883614596565b91506139c782614b30565b604082019050919050565b60006139df602a83614596565b91506139ea82614b7f565b604082019050919050565b6000613a02602983614596565b9150613a0d82614bce565b604082019050919050565b6000613a256004836145a7565b9150613a3082614c1d565b600482019050919050565b6000613a48602083614596565b9150613a5382614c46565b602082019050919050565b6000613a6b602c83614596565b9150613a7682614c6f565b604082019050919050565b6000613a8e600a836145a7565b9150613a9982614cbe565b600a82019050919050565b6000613ab16026836145a7565b9150613abc82614ce7565b602682019050919050565b6000613ad4602183614596565b9150613adf82614d36565b604082019050919050565b6000613af7601d836145a7565b9150613b0282614d85565b601d82019050919050565b6000613b1a6069836145a7565b9150613b2582614dae565b606982019050919050565b6000613b3d601383614596565b9150613b4882614e49565b602082019050919050565b6000613b60603183614596565b9150613b6b82614e72565b604082019050919050565b6000613b83603d836145a7565b9150613b8e82614ec1565b603d82019050919050565b600060e0830160008301518482036000860152613bb682826137d1565b91505060208301518482036020860152613bd082826137d1565b9150506040830151613be56040860182613dd4565b506060830151613bf86060860182613dd4565b506080830151613c0b6080860182613dd4565b5060a0830151613c1e60a0860182613dd4565b5060c0830151613c3160c0860182613dd4565b508091505092915050565b600061012083016000830151613c556000860182613dd4565b5060208301518482036020860152613c6d82826137d1565b91505060408301518482036040860152613c8782826137d1565b9150506060830151613c9c6060860182613dd4565b506080830151613caf6080860182613dd4565b5060a0830151613cc260a0860182613dd4565b5060c0830151613cd560c0860182613dd4565b5060e0830151613ce860e0860182613dd4565b50610100830151613cfd610100860182613dd4565b508091505092915050565b600061012083016000830151613d216000860182613dd4565b5060208301518482036020860152613d3982826137d1565b91505060408301518482036040860152613d5382826137d1565b9150506060830151613d686060860182613dd4565b506080830151613d7b6080860182613dd4565b5060a0830151613d8e60a0860182613dd4565b5060c0830151613da160c0860182613dd4565b5060e0830151613db460e0860182613dd4565b50610100830151613dc9610100860182613dd4565b508091505092915050565b613ddd81614731565b82525050565b613dec81614731565b82525050565b6000613dfd82613a81565b9150613e098289613843565b9150613e1482613874565b9150613e208288613843565b9150613e2b82613b0d565b9150613e378287613843565b9150613e4282613b76565b9150613e4e8286613843565b9150613e5982613923565b9150613e658285613843565b9150613e7082613aa4565b9150613e7c8284613843565b9150613e8782613a18565b9150819050979650505050505050565b6000613ea282613aea565b9150613eae8284613843565b915081905092915050565b6000602082019050613ece60008301846136a7565b92915050565b6000608082019050613ee960008301876136a7565b613ef660208301866136a7565b613f036040830185613de3565b8181036060830152613f158184613798565b905095945050505050565b6000606082019050613f3560008301866136a7565b613f426020830185613de3565b613f4f6040830184613de3565b949350505050565b60006020820190508181036000830152613f7181846136b6565b905092915050565b60006020820190508181036000830152613f938184613714565b905092915050565b6000602082019050613fb06000830184613789565b92915050565b60006020820190508181036000830152613fd0818461380a565b905092915050565b60006080820190508181036000830152613ff2818761380a565b90508181036020830152614006818661380a565b90506140156040830185613de3565b8181036060830152614027818461380a565b905095945050505050565b6000608082019050818103600083015261404c818761380a565b90508181036020830152614060818661380a565b905061406f6040830185613de3565b61407c6060830184613de3565b95945050505050565b600060e082019050818103600083015261409f818a61380a565b905081810360208301526140b3818961380a565b90506140c26040830188613de3565b6140cf6060830187613de3565b6140dc6080830186613de3565b6140e960a0830185613de3565b6140f660c0830184613de3565b98975050505050505050565b6000604082019050818103600083015261411c818561380a565b905061412b6020830184613de3565b9392505050565b6000606082019050818103600083015261414c818661380a565b905061415b6020830185613de3565b6141686040830184613de3565b949350505050565b6000608082019050818103600083015261418a818761380a565b90506141996020830186613de3565b6141a66040830185613de3565b6141b36060830184613de3565b95945050505050565b600060208201905081810360008301526141d581613897565b9050919050565b600060208201905081810360008301526141f5816138ba565b9050919050565b60006020820190508181036000830152614215816138dd565b9050919050565b6000602082019050818103600083015261423581613900565b9050919050565b6000602082019050818103600083015261425581613946565b9050919050565b6000602082019050818103600083015261427581613969565b9050919050565b600060208201905081810360008301526142958161398c565b9050919050565b600060208201905081810360008301526142b5816139af565b9050919050565b600060208201905081810360008301526142d5816139d2565b9050919050565b600060208201905081810360008301526142f5816139f5565b9050919050565b6000602082019050818103600083015261431581613a3b565b9050919050565b6000602082019050818103600083015261433581613a5e565b9050919050565b6000602082019050818103600083015261435581613ac7565b9050919050565b6000602082019050818103600083015261437581613b30565b9050919050565b6000602082019050818103600083015261439581613b53565b9050919050565b600060208201905081810360008301526143b68184613b99565b905092915050565b600060208201905081810360008301526143d88184613d08565b905092915050565b60006020820190506143f56000830184613de3565b92915050565b600061012082019050614411600083018c613de3565b8181036020830152614423818b61380a565b90508181036040830152614437818a61380a565b90506144466060830189613de3565b6144536080830188613de3565b61446060a0830187613de3565b61446d60c0830186613de3565b61447a60e0830185613de3565b614488610100830184613de3565b9a9950505050505050505050565b60006144a06144b1565b90506144ac82826147af565b919050565b6000604051905090565b600067ffffffffffffffff8211156144d6576144d56148e7565b5b6144df82614916565b9050602081019050919050565b6000819050602082019050919050565b6000819050602082019050919050565b600081519050919050565b600081519050919050565b600081519050919050565b600081519050919050565b6000602082019050919050565b6000602082019050919050565b600082825260208201905092915050565b600082825260208201905092915050565b600082825260208201905092915050565b600082825260208201905092915050565b600082825260208201905092915050565b600081905092915050565b60006145bd82614731565b91506145c883614731565b9250827fffffffffffffffffffffffffffffffffffffffffffffffffffffffffffffffff038211156145fd576145fc61485a565b5b828201905092915050565b600061461382614731565b915061461e83614731565b92508261462e5761462d614889565b5b828204905092915050565b600061464482614731565b915061464f83614731565b9250817fffffffffffffffffffffffffffffffffffffffffffffffffffffffffffffffff04831182151516156146885761468761485a565b5b828202905092915050565b600061469e82614731565b91506146a983614731565b9250828210156146bc576146bb61485a565b5b828203905092915050565b60006146d282614711565b9050919050565b60008115159050919050565b60007fffffffff0000000000000000000000000000000000000000000000000000000082169050919050565b600073ffffffffffffffffffffffffffffffffffffffff82169050919050565b6000819050919050565b82818337600083830152505050565b60005b8381101561476857808201518184015260208101905061474d565b83811115614777576000848401525b50505050565b6000600282049050600182168061479557607f821691505b602082108114156147a9576147a86148b8565b5b50919050565b6147b882614916565b810181811067ffffffffffffffff821117156147d7576147d66148e7565b5b80604052505050565b60006147eb82614731565b91507fffffffffffffffffffffffffffffffffffffffffffffffffffffffffffffffff82141561481e5761481d61485a565b5b600182019050919050565b600061483482614731565b915061483f83614731565b92508261484f5761484e614889565b5b828206905092915050565b7f4e487b7100000000000000000000000000000000000000000000000000000000600052601160045260246000fd5b7f4e487b7100000000000000000000000000000000000000000000000000000000600052601260045260246000fd5b7f4e487b7100000000000000000000000000000000000000000000000000000000600052602260045260246000fd5b7f4e487b7100000000000000000000000000000000000000000000000000000000600052604160045260246000fd5b6000601f19601f8301169050919050565b7f202d2d204e465420233a20000000000000000000000000000000000000000000600082015250565b7f4552433732313a207472616e7366657220746f206e6f6e20455243373231526560008201527f63656976657220696d706c656d656e7465720000000000000000000000000000602082015250565b7f4552433732313a207472616e736665722066726f6d20696e636f72726563742060008201527f6f776e6572000000000000000000000000000000000000000000000000000000602082015250565b7f4552433732313a20746f6b656e20616c7265616479206d696e74656400000000600082015250565b7f4572726f723a20506c6179657220697320646561640000000000000000000000600082015250565b7f2c20226d61785f76616c7565223a000000000000000000000000000000000000600082015250565b7f4552433732313a207472616e7366657220746f20746865207a65726f2061646460008201527f7265737300000000000000000000000000000000000000000000000000000000602082015250565b7f4552433732313a20617070726f766520746f2063616c6c657200000000000000600082015250565b7f4552433732313a206f70657261746f7220717565727920666f72206e6f6e657860008201527f697374656e7420746f6b656e0000000000000000000000000000000000000000602082015250565b7f4552433732313a20617070726f76652063616c6c6572206973206e6f74206f7760008201527f6e6572206e6f7220617070726f76656420666f7220616c6c0000000000000000602082015250565b7f4552433732313a2062616c616e636520717565727920666f7220746865207a6560008201527f726f206164647265737300000000000000000000000000000000000000000000602082015250565b7f4552433732313a206f776e657220717565727920666f72206e6f6e657869737460008201527f656e7420746f6b656e0000000000000000000000000000000000000000000000602082015250565b7f7d205d7d00000000000000000000000000000000000000000000000000000000600082015250565b7f4552433732313a206d696e7420746f20746865207a65726f2061646472657373600082015250565b7f4552433732313a20617070726f76656420717565727920666f72206e6f6e657860008201527f697374656e7420746f6b656e0000000000000000000000000000000000000000602082015250565b7f7b226e616d65223a202200000000000000000000000000000000000000000000600082015250565b7f7d2c207b202274726169745f74797065223a2022456e65726779222c2022766160008201527f6c7565223a200000000000000000000000000000000000000000000000000000602082015250565b7f4552433732313a20617070726f76616c20746f2063757272656e74206f776e6560008201527f7200000000000000000000000000000000000000000000000000000000000000602082015250565b7f646174613a6170706c69636174696f6e2f6a736f6e3b6261736536342c000000600082015250565b7f222c20226465736372697074696f6e223a20225468697320697320616e204e4660008201527f542074686174206c6574732070656f706c6520706c617920696e20746865206760208201527f616d65204d657461766572736520536c6179657221222c2022696d616765223a60408201527f2022697066733a2f2f0000000000000000000000000000000000000000000000606082015250565b7f4572726f723a20426f7373206973206465616400000000000000000000000000600082015250565b7f4552433732313a207472616e736665722063616c6c6572206973206e6f74206f60008201527f776e6572206e6f7220617070726f766564000000000000000000000000000000602082015250565b7f222c202261747472696275746573223a205b207b202274726169745f7479706560008201527f223a20224865616c746820506f696e7473222c202276616c7565223a20000000602082015250565b614f19816146c7565b8114614f2457600080fd5b50565b614f30816146d9565b8114614f3b57600080fd5b50565b614f47816146e5565b8114614f5257600080fd5b50565b614f5e81614731565b8114614f6957600080fd5b5056fe506c617965722061747461636b656420626f73732e204e657720626f73732068703a2025730a506c6179657220772f206368617261637465722025732061626f757420746f2061747461636b2c206861732025732048502c20616e642025732041444142434445464748494a4b4c4d4e4f505152535455565758595a6162636465666768696a6b6c6d6e6f707172737475767778797a303132333435363738392b2f426f73732061747461636b656420706c617965722e204e657720706c617965722068703a2025730a4d696e746564204e465420772f20746f6b656e496420257320616e6420636861726163746572496e646578202573a26469706673582212207a668cda9b2341352070c284453a1cef9acea116f86c87b285e46b92e7073e1d64736f6c63430008010033446f6e6520696e697469616c697a696e6720257320772f2048502025732c20696d67202573616e6420656e657267792c2025732c2061747461636b44616d6167652025732c2068704865616c696e67466163746f72202573",
  "linkReferences": {},
  "deployedLinkReferences": {}
}